:100000000C947F0D0C94B00D0C94B00D0C94B00DAD
:100010000C94B00D0C94B00D0C94B00D0C94B00D6C
:100020000C94B00D0C94B00D0C94B00D0C94B00D5C
:100030000C94B00D0C94B00D0C94B00D0C94B00D4C
:100040000C94B00D0C9457780C94B00D0C94B00D2A
:100050000C94B00D0C94B00D0C942F900C940C9645
:100060000C94B00D0C94B20D0C94B00D0C94B00D1A
:100070000C94B00D0C94B00D0C94B00D0C94B00D0C
:100080000C94B00D0C94B00D0C94B00D0C94B00DFC
:100090000C94B00D0C94B00D0C94B00D0C94B00DEC
:1000A0000C94B00D0C94B00D0C94B00D0C94B00DDC
:1000B0000C94B00D0C94B00D0C94B00D0C94B00DCC
:1000C0000C94B00D0C94B00D0C94B00D0C94B00DBC
:1000D0000C94B00D0C94B00D0C94B00D0C94B00DAC
:1000E0000C94B00D96439643A143A143A143AC4366
:1000F000AC43AC43E443DA43DA43DA437890859087
:10010000A490B190CC90D990F490F790FA90FD9093
:10011000009103910D91419746974B9755975F97A3
:10012000D89769977197799783978D979797A6979F
:10013000B097D897BA97C497CE97F997FC97EB9753
:10014000EF97F5973398009804980A980E981298AC
:1001500018981C982098339826982A982E98084A20
:10016000D73B3BCE016E84BCBFFDC12F3D6C7431CB
:100170009ABD56833DDA3D00C77F11BED9E4BB4C22
:100180003E916BAAAABE000000803F05A84CCDB2EC
:10019000D44EB93836A9020C50B9918688083CA6CD
:1001A000AAAA2ABE000000803F005072696E7465E2
:1001B000722068616C7465642E206B696C6C2829F0
:1001C0002063616C6C656421004B494C4C45442EA6
:1001D000200052586275662066756C6C0020746F42
:1001E0006F206C6F6E6720657874727573696F6EBF
:1001F0002070726576656E7465640020636F6C6450
:1002000020657874727573696F6E2070726576659B
:100210006E746564002042002050006F6B005265D0
:1002200073656E643A20003A20007A5F6D61783A17
:1002300020007A5F6D696E3A20005A204F6666731F
:10024000657400546F6F206661722066726F6D2056
:100250007265666572656E636520706F696E7400A5
:1002600053657474696E672054726176656C2041C1
:100270006363656C65726174696F6E3A20005365E3
:100280007474696E6720526574726163742041638F
:1002900063656C65726174696F6E3A2000536574B2
:1002A00074696E67205072696E7420416363656C77
:1002B00065726174696F6E3A200053657474696E7B
:1002C00067205072696E7420616E6420547261768A
:1002D000656C20416363656C65726174696F6E3A29
:1002E00020007A5F6D61783A20007A5F6D696E3A1E
:1002F0002000795F6D61783A2000795F6D696E3A10
:100300002000785F6D61783A2000785F6D696E3A01
:1003100020004649524D574152455F4E414D453AA6
:100320004D61726C696E20312E312E302E312020BD
:1003300028416C657068204F626A65637473204958
:100340006E632E2773205068616272696361746FF7
:10035000722920534F555243455F434F44455F55E3
:10036000524C3A68747470733A2F2F636F64652E21
:10037000616C6570686F626A656374732E636F6D1C
:100380002F646966667573696F6E2F4D41524C49D3
:100390004E2050524F544F434F4C5F564552534995
:1003A0004F4E3A312E30204D414348494E455F541F
:1003B0005950453A4C756C7A426F74204D696E699C
:1003C0002045585452554445525F434F554E543A78
:1003D0003120555549443A33353134383762362D5A
:1003E000636139612D346331612D383736352D64C1
:1003F00036363862316461363538350A003F0020C0
:10040000573A003F0020573A006F6B004B494C4C65
:1004100045442E20004543484F00494E464F004575
:1004200052524F52530044525952554E00434F4D71
:100430004D554E49434154494F4E006F6666001575
:10044000041A041F0426042D0444454255473A006B
:100450005374616E64617264204465766961746985
:100460006F6E3A20004D65616E3A200020202073A7
:1004700069676D613A2000206D65616E3A20002049
:1004800020207A3A2000206F66200020207A3A202F
:1004900000793A2000783A2000202020616E676CB5
:1004A000653A20005374617274696E6720726164EA
:1004B0006975733A2000506F736974696F6E696E65
:1004C00067207468652070726F62652E2E2E0A0098
:1004D0003F4E756D626572206F66206C6567732094
:1004E000696E206D6F76656D656E74206E6F742019
:1004F000706C61757369626C652028302D31352907
:100500002E0A00590058003F53616D706C652073CE
:10051000697A65206E6F7420706C61757369626CA6
:10052000652028342D3530292E0A004D3438205AC4
:100530002D50726F626520526570656174616269E9
:100540006C69747920746573740A003F5665726231
:100550006F7365204C6576656C206E6F7420706CCF
:1005600061757369626C652028302D34292E0A006C
:100570002569206D696E2C20256920736563002034
:100580005A3A200020593A200042656420583A2007
:1005900000205A3A200020593A2000426564205831
:1005A0003A2000486F6D6520582F59206265666FAC
:1005B0007265205A00202B00200A436F7272656317
:1005C00074656420426564204865696768742076B4
:1005D000732E2042656420546F706F6C6F67793A98
:1005E000200A00202B002028302C30290A0020204F
:1005F000204F2D2D2046524F4E54202D2D2B0A00DA
:100600002020207C20202020202020202020207C32
:100610000A002020207C20202020282D2920202096
:10062000207C20540A002054207C202020202020E0
:1006300020202020207C20480A002046207C2028E2
:100640002D29204E20282B29207C20470A002045D8
:10065000207C20202020202020202020207C2049B9
:100660000A00204C207C20202020282B292020201C
:10067000207C20520A002020207C202020202020C6
:1006800020202020207C0A002020202B2D2D2D2012
:100690004241434B202D2D2B0A00200A4265642045
:1006A00048656967687420546F706F67726170681D
:1006B000793A200A004D65616E206F662073616D86
:1006C000706C656420706F696E74733A20002064EA
:1006D0003A200020623A200045716E20636F656603
:1006E00066696369656E74733A20613A20005052FE
:1006F0004F4245204641494C20434C45414E204EF7
:100700004F5A5A4C450028422961636B00284629FC
:10071000726F6E74002852296967687400284C292A
:10072000656674003F4E756D626572206F6620705D
:10073000726F626564202850296F696E7473206936
:100740007320696D706C61757369626C6520283205
:10075000206D696E696D756D292E0A0052756E6E79
:10076000696E6720696E204452592D52554E206D96
:100770006F646500473239204175746F20426564AB
:10078000204C6576656C696E670A003F28562965BE
:1007900072626F7365204C6576656C2069732069A1
:1007A0006D706C61757369626C652028302D342919
:1007B0002E00205A3A0020593A0020436F756E747B
:1007C00020583A200020453A00205A3A0020593A51
:1007D00000583A005761726E696E673A20486F6D33
:1007E000696E672042756D702044697669736F7217
:1007F000203C20310020403A002042403A00202F87
:100800000020423A00202F0020543A0020706F73DD
:100810006974696F6E206F7574206F662072616EE7
:1008200067652E003F50726F62652000220A0055F6
:100830006E6B6E6F776E20636F6D6D616E643A20C4
:1008400022005265776970696E670020496E766193
:100850006C696420657874727564657220004B4918
:100860004C4C45442E20005072696E7465722073A2
:10087000746F707065642064756520746F20657294
:10088000726F72732E2046697820746865206572D5
:10089000726F7220616E6420757365204D3939392D
:1008A00020746F20726573746172742E20285465F1
:1008B0006D706572617475726520697320726573FD
:1008C00065742E20536574206974206166746572A6
:1008D0002072657374617274696E6729004E6F20AF
:1008E0004C696E65204E756D62657220776974681B
:1008F00020636865636B73756D2C204C6173742085
:100900004C696E653A20004E6F20436865636B73D7
:10091000756D2077697468206C696E65206E756DE1
:100920006265722C204C617374204C696E653A20AC
:1009300000636865636B73756D206D69736D6174B9
:1009400063682C204C617374204C696E653A2000FA
:100950004C696E65204E756D626572206973206EFC
:100960006F74204C617374204C696E65204E756DF8
:100970006265722B312C204C617374204C696E655A
:100980003A20004D313130002020506C616E6E6590
:100990007242756666657242797465733A2000200A
:1009A00046726565204D656D6F72793A20004D6124
:1009B00079202034203230313600436F6D70696CFD
:1009C00065643A2000286E6F6E652C206465666150
:1009D000756C7420636F6E6669672900207C204106
:1009E0007574686F723A2000323031362D30342DF4
:1009F00032372031323A303000204C617374205548
:100A00007064617465643A200020312E312E302EDE
:100A10003120004D61726C696E0020536F667477EF
:100A20006172652052657365740020576174636854
:100A3000646F67205265736574002042726F776E31
:100A4000206F757420526573657400204578746555
:100A5000726E616C20526573657400506F776572B9
:100A60005570007374617274002200656E71756553
:100A70007565696E67202200FFFF010000A040003D
:100A800000A0400000004000002543000043430058
:100A9000002143000000000000000000001F430090
:100AA0000025430000434300001F430000000000F6
:100AB000000000000000C06563686F3A0045727274
:100AC0006F723A0020204D383531205A005A2D508F
:100AD000726F6265204F666673657420286D6D299C
:100AE0003A0020204D3230302044300020204D325A
:100AF00030302044002044697361626C65640046B4
:100B0000696C616D656E742073657474696E67736A
:100B10003A0020440020490020204D33303420503A
:100B200000204C0020430020440020490020204D9C
:100B30003330312050005049442073657474696E1D
:100B400067733A00205A0020590020204D32303679
:100B5000205800486F6D65206F66667365742028A5
:100B60006D6D293A00204500205A0020580020428F
:100B70000020540020204D3230352053004164764F
:100B8000616E636564207661726961626C65733A57
:100B900020533D4D696E2066656564726174652001
:100BA000286D6D2F73292C20543D4D696E20747271
:100BB0006176656C20666565647261746520286D78
:100BC0006D2F73292C20423D6D696E696D756D2006
:100BD0007365676D656E742074696D6520286D732B
:100BE000292C20583D6D6178696D756D205859200C
:100BF0006A65726B20286D6D2F73292C20205A3D59
:100C00006D6178696D756D205A206A65726B202858
:100C10006D6D2F73292C2020453D6D6178696D75B0
:100C20006D2045206A65726B20286D6D2F73290039
:100C300020540020520020204D32303420500041FA
:100C40006363656C65726174696F6E733A20503DC1
:100C50007072696E74696E672C20523D7265747291
:100C600061637420616E6420543D74726176656CBA
:100C700000204500205A0020590020204D323031FC
:100C80002058004D6178696D756D20416363656C16
:100C900065726174696F6E20286D6D2F7332293A09
:100CA00000204500205A0020590020204D323033CA
:100CB0002058004D6178696D756D206665656472B8
:100CC0006174657320286D6D2F73293A00204500EB
:100CD000205A0020590020204D39322058005374EA
:100CE0006570732070657220756E69743A00486192
:100CF0007264636F6465642044656661756C74201A
:100D000053657474696E6773204C6F616465640029
:100D100020627974657329002073746F7265642092
:100D200073657474696E6773207265747269657631
:100D30006564202800206279746573290053657406
:100D400074696E67732053746F7265642028004560
:100D500072726F722077726974696E6720746F2087
:100D6000454550524F4D210020746F6F206C6F6EBF
:100D70006720657874727573696F6E20707265761E
:100D8000656E7465640020636F6C642065787472AE
:100D90007573696F6E2070726576656E7465640038
:100DA00045303A20005A3A2000593A2000583A205B
:100DB000004D53312C4D53322050696E730A002080
:100DC0005A3A0020593A0020583A00656E6473740C
:100DD0006F7073206869743A200024F4D43050C3D3
:100DE0008E20C2A24017828B7011127A910D816CF5
:100DF000D90AA861E108C7586607615143061E4B2E
:100E00005D05C145A7041A411104093D98037139D4
:100E100031034036DB0265339102D4305402802E18
:100E20001D02632CEE01752AC501B028A001102710
:100E300081018F2564012B244B01E0223401AC2178
:100E40001F018D200D01801FFC00841EED00971DE9
:100E5000DF00B81CD200E61BC600201BBC00641AD1
:100E6000B200B219A8000A19A0006A189900D11797
:100E7000910040178B00B516840031167E00B31523
:100E800079003A157300C7146F0058146A00EE1306
:100E900066008813630025135E00C7125B006C12A6
:100EA000570015125400C111510070114F0021114B
:100EB0004B00D61049008D10470046104400021028
:100EC0004200C00F4000800F3E00420F3C00060F62
:100ED0003B00CB0E3800930E37005C0E3500270E1A
:100EE0003400F30D3200C10D3100900D3000600D63
:100EF0002E00320D2D00050D2C00D90C2B00AE0C50
:100F00002900850C29005C0C2700350C27000E0CED
:100F10002600E80B2400C40B2400A00B23007D0B4B
:100F200023005A0B2100390B2100180B2000F80A6E
:100F30001F00D90A1E00BB0A1E009D0A1D00800A60
:100F40001D00630A1C00470A1B002C0A1B00110A23
:100F50001A00F7091A00DD091900C4091900AB09C4
:100F60001900920917007B091800630917004C0942
:100F7000160036091600200916000A091500F508A2
:100F80001500E0081400CC081400B8081400A408E8
:100F90001400900813007D0812006B081300580815
:100FA000120046081200340811002308110012082C
:100FB000110001081100F0071000E0071000D00731
:100FC0001000C0071000B0070F00A1071000910724
:100FD0000E0083070F0074070F0065070E00570708
:100FE0000E0049070E003B070D002E070E002007DC
:100FF0000D0013070D0006070D00F9060C00ED06A5
:101000000D00E0060C00D4060C00C8060C00BC065F
:101010000C00B0060C00A4060B0099060C008D060F
:101020000B0082060B0077060B006C060B006106B6
:101030000A0057060B004C060A0042060A00380652
:101040000A002E060A0024060A001A060A001006E4
:10105000090007060A00FD050900F4050900EB0573
:101060000900E2050900D9050900D0050900C705F6
:101070000900BE050900B5050800AD050800A50575
:1010800009009C050800940508008C0508008405EB
:1010900008007C050800740508006C05070065055C
:1010A00008005D050700560508004E0507004705C6
:1010B00007004005080038050700310507002A052C
:1010C0000700230507001C050600160507000F058D
:1010D00007000805060002050700FB040600F504EA
:1010E0000700EE040600E8040600E2040700DB0443
:1010F0000600D5040600CF040600C9040600C30498
:101100000600BD040600B7040600B1040500AC04E7
:101110000600A6040600A00405009B040600950432
:101120000500900406008A0405008504050080047B
:1011300006007A04050075040500700405006B04C0
:10114000050066040500610405005C040500570401
:101150000500520405004D04050048040500430441
:1011600005003E0404003A0405003504050030047F
:1011700004002C04050027040400230405001E04B9
:1011800004001A04040016040500110404000D04F0
:101190000400090405000404040000040400FC0326
:1011A0000400F8030400F4030400F0030400EC035B
:1011B0000400E8030400E4030400E0030400DC038B
:1011C0000400D8030400D4030400D0030400CC03BB
:1011D0000400C8030300C503030024F404D9201B42
:1011E000C40C5C0E9804C4095F0265077101F40524
:1011F000F900FB04B30048048700C10369005803E9
:10120000550003034500BE023A0084023100530238
:101210002A002902250004022000E4011C00C80164
:101220001900AF0117009801140084011300710127
:1012300010006101100051010E0043010D00360144
:101240000B002B010B0020010B00150109000C0104
:10125000090003010800FB000800F3000800EB0090
:101260000700E4000600DE000600D8000600D200F9
:101270000600CC000500C7000500C2000500BD0047
:101280000400B9000400B5000400B1000400AD0082
:101290000400A9000400A5000300A20003009F00B1
:1012A00004009B00030098000300950002009300D7
:1012B0000300900003008D0002008B0003008800F3
:1012C00002008600020084000300810002007F000B
:1012D00002007D0002007B0002007900020077001E
:1012E000010076000200740002007200010071002B
:1012F00002006F0002006D0001006C0002006A0035
:10130000010069000200670001006600010065003D
:101310000100640002006200010061000100600041
:1013200001005F0002005D0001005C0001005B0045
:1013300001005A0001005900010058000100570047
:101340000100560001005500010054000100530047
:101350000000530001005200010051000100500044
:1013600001004F0001004E0000004E0001004D0042
:1013700001004C0001004B0000004B0001004A003E
:10138000010049000100480000004800010047003A
:101390000100460000004600010045000000450035
:1013A000010044000100430000004300010042002E
:1013B0000000420001004100000041000100400027
:1013C00001003F0000003F0001003E0000003E0021
:1013D00001003D0000003D0001003C0000003C0019
:1013E00000003C0001003B0000003B0001003A000F
:1013F00000003A0001003900000039000100380007
:1014000000003800000038000100370000003700FD
:1014100001003600000036000000360001003500F3
:1014200000003500000035000100340000003400E9
:1014300000003400010033000000330000003300DE
:1014400001003200000032000000320001003100D3
:1014500000003100000031000100300000003000C9
:101460000000300001002F0000002F0000002F00BE
:1014700000002F0001002E0000002E0000002E00B2
:1014800001002D0000002D0000002D0000002D00A7
:1014900001002C0000002C0000002C0000002C009B
:1014A00001002B0000002B0000002B0000002B008F
:1014B00001002A0000002A0000002A0000002A0083
:1014C0000100290000002900000029000000290077
:1014D000000029000100280000002800000028006A
:1014E000000028000000280001002700000027005D
:1014F0000000270000002700000027000100260050
:101500000000260000002600000026000000260043
:101510000100250000002500000025000000250036
:101520000000250000002500010024000000240028
:10153000000024000000240000002400010023001B
:10154000000023000000230000002300000023000F
:101550000000230000002300010022000000220000
:1015600000002200000022000000220000002200F3
:1015700001002100000021000000210000002100E6
:1015800000002100000021000000210001002000D7
:1015900000002000000020000000200000002000CB
:1015A00000002000000020000000200001001F00BB
:1015B00000001F0000001F0000001F0000001F00AF
:1015C00000001F0000001F0001001E0000001E00A0
:1015D00000001E0000001E0000004D494E54454D05
:1015E0005020747269676765726564004572723A6B
:1015F000204D494E54454D5020424544004D4158E0
:1016000054454D5020747269676765726564004582
:1016100072723A204D415854454D50204245440085
:10162000546865726D616C2052756E6177617900E6
:10163000544845524D414C2052554E415741590056
:1016400048656174696E67206661696C656400480D
:10165000656174696E67206661696C6564004865E0
:101660006174696E67206661696C656400486561D4
:1016700074696E67206661696C6564004D494E54FB
:10168000454D5020747269676765726564004572E4
:10169000723A204D494E54454D5000626564002C0D
:1016A0002073797374656D2073746F707065642135
:1016B000204865617465725F49443A20004D415885
:1016C00054454D50207472696767657265640045C2
:1016D00072723A204D415854454D50004B642000E1
:1016E00023646566696E65202044454641554C5427
:1016F0005F004B69200023646566696E65202044A5
:10170000454641554C545F004B702000236465668C
:10171000696E65202044454641554C545F00504950
:1017200044204175746F74756E652066696E6973C7
:10173000686564212050757420746865206C61733D
:1017400074204B702C204B6920616E64204B642008
:10175000636F6E7374616E74732066726F6D206256
:10176000656C6F7720696E746F20436F6E66696772
:1017700075726174696F6E2E68005049442041751E
:10178000746F74756E65206661696C656421207480
:10179000696D656F757400504944204175746F74AC
:1017A000756E65206661696C6564212054656D7095
:1017B0006572617475726520746F6F2068696768FF
:1017C00000204B643A2000204B693A2000204B70E7
:1017D0003A200020436C61737369632050494420B0
:1017E000002054753A2000204B753A2000206D618E
:1017F000783A2000206D696E3A200020643A20007B
:1018000020626961733A20001000AD0330016A0163
:1018100050022B0170030A019004F500B005E500A9
:10182000D006D800F007CE001009C500300ABE006F
:10183000500BB700700CB100900DAB00B00EA600BD
:10184000D00FA200F0109D001012990030139500E7
:101850005014920070158E0090168B00B017870000
:10186000D0188400F0198100101B7E00301C7B0012
:10187000501D7900701E7600901F7300B02070001C
:10188000D0216E00F0226B00102469003025660024
:10189000502663007027610090285E00B0295C002C
:1018A000D02A5900F02B5600102D5400302E510034
:1018B000502F4E0070304B0090314800B032450040
:1018C000D0334200F0343E0010363B003037370052
:1018D0005038330070392E00903A2900B03B230075
:1018E000D03C1B00F03D1100103F0100F03F000014
:1018F0001000C90210012C014001220170011801E1
:10190000B0010E01F00104015002FA00B002F00033
:101910003003E600D003DC009004D2007005C8005C
:10192000A006BE000008B400B009AA00D00BA000B9
:10193000600E960060118C0000158200201978005E
:10194000C01D6E00A0226400B0275A00902C5000E9
:1019500000314600E0343C0010383200903A280054
:10196000603C1E00A03D1400803E0A00203F0000A5
:1019700000000A0B02090C0D0E0807030401000009
:101980000000000000000000000000000000000057
:101990000000000000000000000000001211100014
:1019A0000000000000000000000000000000000037
:1019B0000000000000000000000000000000000027
:1019C0000000000000000102102020080810204044
:1019D00010204080020102010804020101020408F3
:1019E0001020408080402010080402018004020181
:1019F00080402010080402010804020101020408CA
:101A000010204080010204081020408010080408C3
:101A1000801020400440801020400480050505050A
:101A2000070508080808020202020A0A0808040456
:101A30000404010101010101010103030303030384
:101A40000303040707070C0C0C0C0C0C0C0C020213
:101A5000020206060606060606060B0B0B0B0B0B10
:101A60000B0B07070A0A0A0A0A0A050505040404FB
:101A70000808000020002300260029002C002F0069
:101A800032000001000003010601090100002200EC
:101A9000250028002B002E00310034000201000038
:101AA000050108010B0100002100240027002A0085
:101AB0002D003000330001010000040107010A017C
:101AC0004E414E494E495459494E46CDCCCC3D0A23
:101AD000D7233C17B7D13877CC2B329595E6241F06
:101AE000B14F0A000020410000C84200401C4620BF
:101AF000BCBE4CCA1B0E5AAEC59D74003948112499
:101B00001FBECFEFD1E2DEBFCDBF00E00CBF14E0BF
:101B1000A0E0B2E0EAE1F9E401E00BBF02C0079007
:101B20000D92AA33B107D9F720E1AAE3B4E001C0CE
:101B30001D92A23BB207E1F71AE1CEEFDAE100E035
:101B400006C022970109FE010BBF0E940E9ECC3FEA
:101B5000D10780E00807A9F70E940F990C948BA485
:101B60000C9400001F920F920FB60F9211240BB627
:101B70000F922F933F934F938F939F93EF93FF93E6
:101B80004091C60080913A04882341F04A3019F010
:101B90004D3009F043C010923A0440C08091BD041A
:101BA00090E001968F7799272091BE0430E082174C
:101BB000930749F0E091BD04F0E0E35CFB4F408304
:101BC0008093BD042BC081E080933A048091BD04D2
:101BD00081508F7790E0FC01E35CFB4F20812A303D
:101BE00041F02D3031F03091BD042091BE0432130C
:101BF0000CC08F5F8F778093BD0480913C0481116E
:101C00000DC081E080933C0409C02091BD042150A7
:101C10002F77822F90E02093BD04DDCFFF91EF91CD
:101C20009F918F914F913F912F910F900BBE0F90ED
:101C30000FBE0F901F9018959A01AB01211581EEF0
:101C400038074105510549F182E08093C00060E00A
:101C500079E08DE390E00E94D69D21503109410941
:101C60005109CA01B90122E030E040E050E00E9491
:101C7000D69D3093C5002093C4008091C10080613F
:101C80008093C1008091C10088608093C1008091E1
:101C9000C10080688093C10008951092C00020E1C7
:101CA00030E0E7CF3FB7F8942091BE048091BD04A7
:101CB000821759F0E22FF0E0E35CFB4F808190E067
:101CC0002F5F2F772093BE0402C08FEF9FEF3FBF9F
:101CD00008958FB7F8949091BE049093BD048FBF80
:101CE00008954F925F926F927F928F929F92AF92E0
:101CF000BF92CF92DF92EF92FF920F931F93CF93F9
:101D0000DF93CDB7DEB7A0970FB6F894DEBF0FBE56
:101D1000CDBF5C014115510561057105E9F420E075
:101D200030E040E350E060E070E0A0960FB6F89439
:101D3000DEBF0FBECDBFDF91CF911F910F91FF90FE
:101D4000EF90DF90CF90BF90AF909F908F907F905B
:101D50006F905F904F905BC08E010F5F1F4FC12C43
:101D6000D12C76014801422E512C612C712C8FEF21
:101D7000C81AD80AE80AF80ACB01BA01A3019201ED
:101D80000E94B49DCA01F80161938F01A901BC01B1
:101D9000411551056105710551F7F1E0CF1AD108E0
:101DA000E108F108F401EC0DFD1D80818A3010F48A
:101DB00040E301C047E3480F552747FD5095652F85
:101DC000752F20E030E0C50122D081E0C81AD1088B
:101DD000E108F108EFEFCE16DE06EE06FE0611F77B
:101DE000A0960FB6F894DEBF0FBECDBFDF91CF91A6
:101DF0001F910F91FF90EF90DF90CF90BF90AF9029
:101E00009F908F907F906F905F904F9008952115D5
:101E1000310539F48091C00085FFFCCF4093C600A6
:101E200008952A30310509F424C05BCF9A01462F6A
:101E3000552747FD5095652F752FE9CFCF93DF9339
:101E4000EC0120E030E04DE050E060E070E0DFDFEA
:101E500020E030E04AE050E060E070E0CE01DF9149
:101E6000CF91D5CF9A01AB01662757FD6095762FAC
:101E7000CECFCF92DF92EF92FF92CF93DF93EC0120
:101E80006A017B0177FF0FC020E030E04DE250E0B7
:101E900060E070E0BCDFF094E094D094C094C11C8A
:101EA000D11CE11CF11C2AE0B701A601CE01DF9193
:101EB000CF91FF90EF90DF90CF9013CF2115310598
:101EC00039F48091C00085FFFCCF4093C60008958F
:101ED00008CF9A01462F50E060E070E0EFCFCF933B
:101EE000DF93EC019A01AB0160E070E0E7DFCE0127
:101EF000DF91CF91A3CF8F929F92AF92BF92CF925B
:101F0000DF92EF92FF921F93CF93DF93EC016A0170
:101F10007B01122F20E030E0A901C701B6010E9429
:101F2000F79987FF0CC020E030E04DE250E060E020
:101F300070E0CE016CDFF7FAF094F7F8F094B12C72
:101F400060E070E080E09FE3B11641F020E030E017
:101F500040E251E40E94FE99B394F6CF9B01AC019C
:101F6000C701B6010E941E996B017C010E946B9A09
:101F70004B015C010E94979A9B01AC01C701B6011D
:101F80000E941D996B017C012AE0B501A401CE01DC
:101F9000A8DE112341F020E030E04EE250E060E0A6
:101FA00070E0CE0134DF112319F120E030E040E28F
:101FB00051E4C701B6010E94CC9C6B017C010E94D8
:101FC000669A4B01AA2497FCA094BA2CB501A401EF
:101FD000CE014FDFC501B4010E94999A9B01AC016B
:101FE000C701B6010E941D996B017C011150DBCF26
:101FF000DF91CF911F91FF90EF90DF90CF90BF9036
:10200000AF909F908F90089576CFFC016591759168
:10201000859194910895CF92DF92EF92FF920F9362
:102020001F93CF93DF93EC01CC0FDD1FCC0FDD1F8F
:10203000FE01EC5AFA4FDE01A05ABA4F2D913D91A4
:102040004D915C9160817181828193810E941E9982
:102050006B017C01CE018555954FD7DF8E01085D60
:102060001D4FA70196010E941E99F801608371839C
:1020700082839383CE018156954FC7DFC45EDD4FC7
:10208000A70196010E941E99688379838A839B83A6
:10209000DF91CF911F910F91FF90EF90DF90CF9044
:1020A0000895EF92FF920F931F93CF93DF93EC016C
:1020B0008C01000F111F000F111FF801E05AFA4F99
:1020C0001082118212821382C8018D56954F9DDFB6
:1020D0009801255A364F7901F801EC5AFA4F2081C0
:1020E0003181428153810E941E99F701608371837F
:1020F00082839383CE01DF91CF911F910F91FF9047
:10210000EF9089CF8091120F811103C081E08093FD
:10211000120F0895E7EBFAE08491882341F0909143
:10212000C00095FFFCCF8093C6003196F5CFE3EA5F
:10213000F5E08491882341F09091C00095FFFCCF99
:102140008093C6003196F5CF8091C00085FFFCCF0B
:102150008AE08093C60008958F929F92AF92BF92BB
:10216000CF92DF92EF92FF92E1EDF7E08491882326
:1021700041F09091C00095FFFCCF8093C60031964E
:10218000F5CF40915B0950915C0960915D097091B8
:102190005E0922E030E08BE394E036DFEDECF7E01F
:1021A0008491882341F09091C00095FFFCCF8093EB
:1021B000C6003196F5CF40915F095091600960915A
:1021C00061097091620922E030E08BE394E01CDF4A
:1021D000E9ECF7E08491882341F09091C00095FFED
:1021E000FCCF8093C6003196F5CF409163095091A2
:1021F0006409609165097091660922E030E08BE323
:1022000094E002DFE5ECF7E08491882341F09091BF
:10221000C00095FFFCCF8093C6003196F5CF40916A
:102220006709509168096091690970916A0922E013
:1022300030E08BE394E0E8DE8FB7F8944091CF0E66
:102240005091D00E6091D10E7091D20E8090D30E2D
:102250009090D40EA090D50EB090D60EC090D70E10
:10226000D090D80EE090D90EF090DA0E8FBFEAEB46
:10227000F7E08491882341F09091C00095FFFCCF56
:102280008093C6003196F5CF2AE030E08BE394E0EE
:10229000BEDDE6EBF7E08491882341F09091C00029
:1022A00095FFFCCF8093C6003196F5CF2AE030E051
:1022B000B501A4018BE394E0AADDE2EBF7E08491A1
:1022C000882341F09091C00095FFFCCF8093C60019
:1022D0003196F5CF2AE030E0B701A6018BE394E018
:1022E00096DD8091C00085FFFCCF8AE08093C60018
:1022F000FF90EF90DF90CF90BF90AF909F908F9026
:1023000008950E9456966093450570934605809304
:1023100047059093480508958091400290914102AD
:10232000A0914202B091430280936B0990936C0993
:10233000A0936D09B0936E0980913E0290913F0287
:1023400090936E0580936D0584E690E090933F0234
:1023500080933E02D6DF81E00C9497740E949F74B4
:1023600080916B0990916C09A0916D09B0916E09F3
:102370008093400290934102A0934202B0934302A3
:1023800080916D0590916E0590933F0280933E027F
:10239000B8CFFC012491222341F03091C00035FFD9
:1023A000FCCF2093C6000196F4CF4AE050E08BE3C7
:1023B00094E058CDFC012491222341F03091C000DB
:1023C00035FFFCCF2093C6000196F4CF22E030E029
:1023D0008BE394E019CEFC012491222341F030914B
:1023E000C00035FFFCCF2093C6000196F4CF2AE051
:1023F00030E08BE394E062CDCF93DF931F921F9286
:10240000CDB7DEB78091AC109091AD109E012F5FDB
:102410003F4F009719F4225B304102C0281B390B53
:102420003A83298389819A810F900F90DF91CF9110
:102430000895FF920F931F93CF93DF93F62EFC0125
:1024400020812B3369F100913309109134090A304E
:10245000110534F5C0913509D091360940E64C9FFD
:1024600090014D9F300D1124BC01C9018D589A4F28
:102470000E9481A1FE01E85DFA4FF082CE01019633
:102480006AE070E00E94A19D90933609809335091F
:102490000F5F1F4F109334090093330981E001C08F
:1024A00080E0DF91CF911F910F91FF900895CF931E
:1024B000DF93D82FC92FBDDF882309F43CC0E7EB99
:1024C000FAE08491882341F09091C00095FFFCCF01
:1024D0008093C6003196F5CFEBE6FAE0849188232D
:1024E00041F09091C00095FFFCCF8093C6003196DB
:1024F000F5CFED2FFC2F8191882339F09091C0000A
:1025000095FFFCCF8093C600F6CFE9E6FAE0849110
:10251000882341F09091C00095FFFCCF8093C600C6
:102520003196F5CF8091C00085FFFCCF8AE0809383
:10253000C60081E001C080E0DF91CF910895DF9275
:10254000EF92FF920F931F93CF93DF93CDB7DEB738
:102550006E970FB6F894DEBF0FBECDBF60914905F0
:1025600070914A056115710559F14DE150E08E01F8
:102570000F5F1F4FC8010E9444A11E8EF8017F010A
:10258000E01AF10AD190DD2019F08AE0D812F7CFD5
:10259000F801EE0DFF1D108260E0C80188DF88237E
:1025A00079F0DD20B1F08FEFE81AF80A8091490543
:1025B00090914A058E0D9F1D90934A058093490581
:1025C00081E02091490530914A05232B39F480E0C0
:1025D00005C010924A0510924905F2CF6E960FB6CB
:1025E000F894DEBF0FBECDBFDF91CF911F910F9149
:1025F000FF90EF90DF90089540E052EC61E070E0D2
:102600008BE394E019DBE3E6FAE08491882341F060
:102610009091C00095FFFCCF8093C6003196F5CF16
:102620008091C00085FFFCCF8AE08093C600E7EB75
:10263000FAE08491882341F09091C00095FFFCCF8F
:102640008093C6003196F5CF84B780FF14C0EBE5C8
:10265000FAE09491992341F02091C00025FFFCCF2E
:102660009093C6003196F5CF9091C00095FFFCCFB6
:102670009AE09093C60081FF14C0EBE4FAE09491D5
:10268000992341F02091C00025FFFCCF9093C60014
:102690003196F5CF9091C00095FFFCCF9AE09093D2
:1026A000C60082FF14C0EAE3FAE09491992341F056
:1026B0002091C00025FFFCCF9093C6003196F5CF46
:1026C0009091C00095FFFCCF9AE09093C60083FFE5
:1026D00014C0EAE2FAE09491992341F02091C000FD
:1026E00025FFFCCF9093C6003196F5CF9091C000A6
:1026F00095FFFCCF9AE09093C60085FF14C0EAE1F5
:10270000FAE08491882341F09091C00095FFFCCFBE
:102710008093C6003196F5CF8091C00085FFFCCF35
:102720008AE08093C60014BEE3E1FAE08491882336
:1027300041F09091C00095FFFCCF8093C600319688
:10274000F5CFE9E0FAE08491882341F09091C00050
:1027500095FFFCCF8093C6003196F5CF8091C000E5
:1027600085FFFCCF8AE08093C600E7EBFAE0849116
:10277000882341F09091C00095FFFCCF8093C60064
:102780003196F5CFE9EFF9E08491882341F09091FB
:10279000C00095FFFCCF8093C6003196F5CFE8EEE0
:1027A000F9E08491882341F09091C00095FFFCCF1F
:1027B0008093C6003196F5CFECEDF9E08491882343
:1027C00041F09091C00095FFFCCF8093C6003196F8
:1027D000F5CFE5ECF9E08491882341F09091C000B9
:1027E00095FFFCCF8093C6003196F5CF8091C00055
:1027F00085FFFCCF8AE08093C600EAEBF9E0849184
:10280000882341F09091C00095FFFCCF8093C600D3
:102810003196F5CFEEEAF9E08491882341F090916A
:10282000C00095FFFCCF8093C6003196F5CF809114
:10283000C00085FFFCCF8AE08093C600E7EBFAE09A
:102840008491882341F09091C00095FFFCCF809344
:10285000C6003196F5CFEFE9F9E08491882341F085
:102860009091C00095FFFCCF8093C6003196F5CFC4
:10287000C3DD4AE050E0BC018BE394E0F3DAE8E822
:10288000F9E08491882341F09091C00095FFFCCF3E
:102890008093C6003196F5CF4AE050E060ED74E0D9
:1028A0008BE394E0DFDA8091C00085FFFCCF8AE003
:1028B0008093C600E8E2F5E081E0819395E0E233A1
:1028C000F907D9F70E9424500E94DA860E94DE554B
:1028D0000E9400960E94E87F8091010188608093A9
:1028E0000101089523E735E080E090E0F901E80F69
:1028F000F91F1082019680369105C1F7205A3F4F8B
:1029000089E02333380781F78BE394E0E2D9109212
:102910004E0510924D0581E090E09093340980932C
:10292000330989E090E09093380980933709109239
:1029300036091092350908950F931F93CF93DF93B3
:1029400000914B0510914C0565E470E0C8010E94B0
:102950006DA1EC01C8010196209761F0188260E03A
:1029600070E00E948B9E25E42883DF91CF911F9118
:102970000F91089560E070E0DF91CF911F910F916A
:102980000C948B9E80914B0590914C054AE050E051
:1029900060E070E001960C94F39F80914B0590915C
:1029A0004C054AE050E060E070E001960E94F39F21
:1029B000CB010895682F772767FD709580913909BD
:1029C00090913A090E946DA190934C0580934B051C
:1029D00021E0892B09F420E0822F08950F931F93A3
:1029E000CF93DF938C0184E5E5DF882361F1D5DFA8
:1029F000EC01181619064CF5E7EBFAE084918823F0
:102A000041F09091C00095FFFCCF8093C6003196B5
:102A1000F5CF8091C00085FFFCCF8DE48093C60088
:102A20004AE050E0B8018BE394E01CDABE018BE48D
:102A300098E0AFDC8091C00085FFFCCF8AE08093F6
:102A4000C60081E005C0809151058093340580E087
:102A5000DF91CF911F910F9108950F931F93CF9303
:102A6000DF9300D000D0CDB7DEB726E0E5E9F2E095
:102A7000DE01119601900D922A95E1F7FC01EE0F0F
:102A8000FF1F21E030E02C0F3D1FE20FF31F60819C
:102A90007181161617061CF1E7EBFAE02491222348
:102AA00041F03091C00035FFFCCF2093C600319635
:102AB000F5CFE4EDF7E02491222341F03091C000FE
:102AC00035FFFCCF2093C6003196F5CF2091C00092
:102AD00025FFFCCF2AE02093C6006AE070E08C015D
:102AE000000F111F000F111F0B521C4F882777FD7D
:102AF0008095982F0E94999A9B01AC01F801608102
:102B00007181828193810E94FE996093400270934B
:102B10004102809342029093430226960FB6F894A6
:102B2000DEBF0FBECDBFDF91CF911F910F910895F2
:102B30008F929F92AF92BF92CF92DF92EF92FF92CD
:102B40000F931F9320E030E040E752E46091400291
:102B50007091410280914202909143020E94FE993D
:102B60004B015C01E0906309F090640900916509F4
:102B70001091660920915F093091600940916109C7
:102B80005091620960915B0970915C0980915D09C7
:102B900090915E09E0915105EF93E7E6CE2EE9E0D2
:102BA000DE2E0E9478560F901F910F91FF90EF90AC
:102BB000DF90CF90BF90AF909F908F9008954F92ED
:102BC0005F926F927F928F929F92AF92BF92EF929D
:102BD000FF920F931F93CF93DF93CDB7DEB7289764
:102BE0000FB6F894DEBF0FBECDBF4B015C018091E4
:102BF000400290914102A0914202B0914302898328
:102C00009A83AB83BC83412C512CF4E36F2EF4E404
:102C10007F2E409240025092410260924202709296
:102C20004302E0926309F0926409009365091093EE
:102C300066092D833E834F8358877ADF0E94507E3A
:102C40006091160270911702882777FD8095982F62
:102C50000E94999A609340027093410280934202CD
:102C60009093430280925B0990925C09A0925D0967
:102C7000B0925E092D813E814F81588520935F0976
:102C800030936009409361095093620951DF0E94BB
:102C9000507E89819A81AB81BC8180934002909360
:102CA0004102A0934202B093430228960FB6F894D3
:102CB000DEBF0FBECDBFDF91CF911F910F91FF906F
:102CC000EF90BF90AF909F908F907F906F905F90AC
:102CD0004F9008954F925F926F927F928F929F9242
:102CE000AF92BF92CF92DF92EF92FF920F931F931A
:102CF0002B013C0120E030E040E752E460914002CB
:102D00007091410280914202909143020E94FE998B
:102D10004B015C0120915F0930916009409161098C
:102D20005091620960915B0970915C0980915D0925
:102D300090915E09E0915105EF93A7E6CA2EA9E0B4
:102D4000DA2E830172010E9478560F901F910F9125
:102D5000FF90EF90DF90CF90BF90AF909F908F90BB
:102D60007F906F905F904F9008958F929F92AF9257
:102D7000BF92CF92DF92EF92FF920F931F9320E0CA
:102D800030E040E752E40E94FE994B015C01E09084
:102D90005309F0905409009155091091560920915A
:102DA0004F09309150094091510950915209609159
:102DB0004B0970914C0980914D0990914E09E09119
:102DC0005105EF93B7E5CB2EB9E0DB2E0E94785684
:102DD0000F901F910F91FF90EF90DF90CF90BF90D9
:102DE000AF909F908F900895609140027091410242
:102DF0008091420290914302B8CFCF92DF92EF923E
:102E0000FF920F931F93E0906309F0906409009183
:102E100065091091660920915F0930916009409120
:102E200061095091620960915B0970915C09809120
:102E30005D0990915E09E7E6CE2EE9E0DE2E0E9464
:102E4000C1611F910F91FF90EF90DF90CF90089597
:102E50004F925F926F927F928F929F92AF92BF92AA
:102E6000CF92DF92EF92FF920F931F93CF93DF9356
:102E7000EC01FC01E858F54FF4908C01000F111F94
:102E8000000F111FC801855A964F4C01FC0110829A
:102E9000118212821382B1DFC8018957954FB5D8CC
:102EA0002B013C016F2D772767FD7095872F972F9A
:102EB0000E94999A6B017C01C801855B964F5C0169
:102EC00020E030E040EC5FE3C301B2010E94CC9C03
:102ED000A70196010E94CC9CF501608371838283D7
:102EE0009383F801EB52FC4F80819181A281B381E1
:102EF0008093400290934102A0934202B093430218
:102F000073DF0E94507EF4011082118212821382BC
:102F100074DF80E00E9497740558154FC80175D87A
:102F20009058A70196010E94CC9CF50160837183A3
:102F30008283938359DF0E94507E81E00E949774C0
:102F4000CE018BDDC80161D89B01AC010E941E99A6
:102F5000A70196010E94CC9CF50160837183828356
:102F6000938342DF0E94507ECE019BD846DFF4015E
:102F700080819181A281B381F50180839183A283B5
:102F8000B3831092400210924102109242021092BA
:102F900043020E94A474FE01E85BF64F81E0808347
:102FA000CB5BD64F8883DF91CF911F910F91FF901C
:102FB000EF90DF90CF90BF90AF909F908F907F90D9
:102FC0006F905F904F90089580E1EBE4F9E0ABE5FE
:102FD000B9E001900D928A95E1F70895EF92FF9282
:102FE0000F931F93E0906309F090640900916509C5
:102FF00010916609E4DD1F910F91FF90EF90089505
:10300000EF92FF920F931F937B018C0120915F0938
:1030100030916009409161095091620960915B09AA
:1030200070915C0980915D0990915E09C8DD1F91E6
:103030000F91FF90EF900895CF93809133058230E8
:1030400008F048C060E070E080EA90E4D9DFE2E494
:10305000F8E08491882341F09091C00095FFFCCF67
:103060008093C6003196F5CF8091C00085FFFCCFDC
:103070008AE08093C60020E030E04DE253E460E057
:1030800070E084E392E4AADF60E070E080E89FEB08
:10309000B7DFC6E020E030E04DE253E460E070E0EE
:1030A00086EE92E49BDF20E030E04DE253E460E006
:1030B00070E084E392E492DFC15061F760E070E079
:1030C00080EA90E49DDF20E030E0A901CA01B90167
:1030D00085DF05C060E070E080EA90E491DF8091D8
:1030E00033058F5F80933305CF9108958F929F9220
:1030F000AF92BF92CF92DF92EF92FF920F931F9306
:1031000000D985E492E00E94AB9380E090E0A4E3D4
:10311000B4E48093400290934102A0934202B093A2
:10312000430260E070E080E890ECD4DD0E94507EC5
:1031300082E090E00E94B67E4B015C0120915F0925
:1031400030916009409161095091620960915B0979
:1031500070915C0980915D0990915E09A7E6CA2E85
:10316000A9E0DA2E850174010E94C16120E030E0FF
:1031700040E850ECC501B4010E94F799811106C0E6
:103180008AE00E94A298892B09F048C083E89AE05F
:103190000E9405109B01AC01C501B4010E941E995B
:1031A00099DD0E94507E0E94A47482E090E055DC7C
:1031B00020E030E040E251E4609140027091410231
:1031C00080914202909143020E94FE9960934002D6
:1031D00070934102809342029093430260E070E05A
:1031E00080E890EC77DD0E94507E0E94A47482E01B
:1031F00090E00E94B67E60936309709364098093A7
:103200006509909366091F910F91FF90EF90DF90F1
:10321000CF90BF90AF909F908F90EFCD1F910F9167
:10322000FF90EF90DF90CF90BF90AF909F908F90E6
:1032300003CF4F925F926F927F92AF92BF92CF92E5
:10324000DF92EF92FF920F931F93CF93DF9300D003
:103250001F92CDB7DEB769837A838B839C83290164
:103260003A01C801B701CCDEE0906309F09064092F
:10327000009165091091660920915F0930916009FC
:10328000409161095091620969817A818B819C81A9
:1032900096DC60915B0970915C0980915D09909169
:1032A0005E09A30192019ADEC0FC0E9482101EDF1B
:1032B0000091630910916409E0906509F090660936
:1032C00020E030E040EA50E4B801C7010E94F799DD
:1032D000882309F455C0C1FE05C08091120F8111E9
:1032E0001092120F83E0A816B1040CF44EC0EBE963
:1032F000F5E08491882341F09091C00095FFFCCFC8
:103300008093C6003196F5CF23E030E049815A81A1
:103310006B817C818BE394E00E940410E6E9F5E088
:103320008491882341F09091C00095FFFCCF809359
:10333000C6003196F5CF23E030E0B301A2018BE364
:1033400094E00E940410E1E9F5E08491882341F0C3
:103350009091C00095FFFCCF8093C6003196F5CFC9
:1033600023E030E0A801B7018BE394E00E94041051
:103370008091C00085FFFCCF8AE08093C60005C025
:1033800000E010E030E820EC02C03E2D2F2DB80107
:10339000832F922F0F900F900F900F90DF91CF916E
:1033A0001F910F91FF90EF90DF90CF90BF90AF9063
:1033B0007F906F905F904F9008958F929F92AF9201
:1033C000BF92CF92DF92EF92FF920F931F93CF9312
:1033D000DF93B1EDCB2EB3E0DB2E0BE519E0CBE4B0
:1033E000EC2EC9E0FC2EC0E0D0E0F60181916F0127
:1033F000E1DA882309F44DC09FDAFE01E159FA4F62
:103400002081211104C020915005222331F0F801C0
:10341000208131814281538103C020E030E0A90145
:103420000E941E994B015C01C330D10511F0209719
:1034300079F4F8012081318142815381C501B401C1
:103440000E94F79918160CF04FC0379B22C04CC051
:10345000C130D10581F420915F093091600940911C
:103460006109509162090E94F79918160CF03CC04E
:1034700002993AC00EC020916309309164094091CD
:103480006509509166090E94FA9B87FF2DC01C991F
:103490002BC0F80180819181A281B381F7018083E3
:1034A0009183A283B38321960C5F1F4FF4E0EF0E4C
:1034B000F11CC430D10509F098CF86E47BDA88236B
:1034C000C9F03ADA6B017C0120E030E0A9010E94EA
:1034D000FA9B18167CF4C0924002D0924102E0920E
:1034E0004202F092430206C0F70180829182A282DA
:1034F000B382D9CFDF91CF911F910F91FF90EF90C1
:10350000DF90CF90BF90AF909F908F900895E7EBA2
:10351000FAE08491882341F09091C00095FFFCCFA0
:103520008093C6003196F5CFEFE2F8E084918823CE
:1035300041F09091C00095FFFCCF8093C60031967A
:10354000F5CFE0913B09F0913C098191882339F056
:103550009091C00095FFFCCF8093C600F6CFECE2BF
:10356000F8E08491882341F09091C00095FFFCCF52
:103570008093C6003196F5CF08954F925F926F9277
:103580007F928F929F92AF92BF92CF92DF92EF92F3
:10359000FF921F93CF93DF930E94507E85E492E0C9
:1035A0000E94AB930E948C1180E1EBE5F9E0ABE463
:1035B000B9E001900D928A95E1F7109240021092C5
:1035C0004102109242021092430288E5F3D9D82FAB
:1035D00089E5F0D9C82F8AE5EDD9D11105C0C1110F
:1035E00007C091E0982705C0CC2311F0982F01C0A7
:1035F00090E090931102911102C0882319F082E0AB
:1036000090E026DC80911102811106C0DD2309F4CF
:1036100000C1CC2309F4FDC010925F09109260092B
:10362000109261091092620910925B0910925C0974
:1036300010925D0910925E09E8E7FAE01491DDDB73
:1036400087E89AE00E9405104B015C018BE89AE044
:103650000E9405106B017C019B01AC01C501B40106
:103660000E94FA9B18162CF4A5019401C701B6011B
:1036700004C0A7019601C501B4010E94FE992B0167
:103680003C0120E030E040EC5FE3C501B4010E9462
:10369000CC9C4B015C01612F772767FD7095872FCC
:1036A000972F0E94999A9B01AC01C501B4010E9419
:1036B000CC9C60934B0970934C0980934D09909377
:1036C0004E09E9E7FAE0B49020E030E040EC5FE337
:1036D000C701B6010E94CC9C6B017C016B2D772742
:1036E00067FD7095872F972F0E94999A9B01AC01D7
:1036F000C701B6010E94CC9C60934F09709350099A
:103700008093510990935209A3019201C301B20120
:103710000E94CC9C20E030E040E85FE30E941E99CC
:103720000E94399D20E030E041EE54E40E94CC9CA0
:10373000609340027093410280934202909343024F
:1037400053DB0E94507E80E090E00E94511081E0A7
:1037500090E00E94511051DB40915B0950915C094F
:1037600060915D0970915E0940934B0950934C093B
:1037700060934D0970934E0940915F095091600923
:10378000609161097091620940934F09509350090B
:10379000609351097093520927DB109240021092F6
:1037A000410210924202109243020E94507E0E94F7
:1037B000A47440914B0950914C0960914D0970914E
:1037C0004E0940935B0950935C0960935D097093C7
:1037D0005E0940914F0950915009609151097091D3
:1037E000520940935F095093600960936109709397
:1037F00062094091530950915409609155097091A3
:103800005609409363095093640960936509709366
:10381000660980911102811102C0DD2319F080E058
:1038200090E016DB80911102811102C0CC2319F0C7
:1038300081E090E00DDBE1DA80916B0990916C09F9
:10384000A0916D09B0916E0980934002909341025E
:10385000A0934202B093430280916D0590916E0552
:1038600090933F0280933E020E9481110E94A474B3
:10387000DF91CF911F91FF90EF90DF90CF90BF909D
:10388000AF909F908F907F906F905F904F900C942F
:10389000AC10E4E2F8E02491222379F03091C000EA
:1038A00035FFFCCF2093C6003196F5CF3091C00094
:1038B00035FFFCCF2093C6000196FC012491211115
:1038C000F5CFECE0F8E08491882341F09091C000BE
:1038D00095FFFCCF8093C6003196F5CF8091C00054
:1038E00085FFFCCF8AE08093C60008950E94821075
:1038F0000E94507E0E948C1180E090E0A4E3B4E42A
:103900008093400290934102A0934202B0934302FD
:10391000EDDBE9E8F5E08491882341F09091C00067
:1039200095FFFCCF8093C6003196F5CF20E030E0C4
:10393000A90160915B0970915C0980915D0990918A
:103940005E090E941E9927E137EB41ED58E30E9482
:103950001E99AB01BC0122E030E08BE394E00E94B1
:103960000410E4E8F5E08491882341F09091C000D0
:1039700095FFFCCF8093C6003196F5CF20E030E074
:10398000A90160915F09709160098091610990912E
:1039900062090E941E9927E137EB41ED58E30E942E
:1039A0001E99AB01BC0122E030E08BE394E00E9461
:1039B0000410EFE7F5E08491882341F09091C00076
:1039C00095FFFCCF8093C6003196F5CF27E137EB0A
:1039D00041ED58E360916309709164098091650934
:1039E000909166090E941E99AB01BC0122E030E073
:1039F0008BE394E00E9404108091C00085FFFCCF0F
:103A00008AE08093C6000E94AE118091120F81114E
:103A10001092120F109233050C94AC108F929F925B
:103A2000AF92BF92CF92DF92EF92FF920F931F93CC
:103A3000CF93DF9300D01F92CDB7DEB785E40E940D
:103A4000DA14B82E811102C00E94507E11EDC12EF1
:103A500013E0D12E00E6E02E05E0F02E0BE519E094
:103A6000812C912CA12CF60181916F010E94DA1416
:103A7000882369F1F80120813181428153812983B2
:103A80003A834B835C830E949C14F80160837183AA
:103A90008283938329813A814B815C81F3E08F1685
:103AA0009104A9F00E941D999B01AC01F70160816E
:103AB0007181828193810E941E99F70160837183D5
:103AC00082839383C4010E940B10AA24A394FFEF66
:103AD0008F1A9F0A84E0E80EF11C0C5F1F4FE4E090
:103AE0008E16910409F0BFCFAA2089F00F900F9095
:103AF0000F900F90DF91CF911F910F91FF90EF905A
:103B0000DF90CF90BF90AF909F908F9076C9BB20F1
:103B1000A1F087E699E00F900F900F900F90DF9142
:103B2000CF911F910F91FF90EF90DF90CF90BF90BA
:103B3000AF909F908F900C94B5620F900F900F9064
:103B40000F90DF91CF911F910F91FF90EF90DF9039
:103B5000CF90BF90AF909F908F9008950F931F9339
:103B6000CF93DF93CDB7DEB76E970FB6F894DEBF75
:103B70000FBECDBF85E395E00E942F81BC0180E0A0
:103B800090E02CE330E040E050E00E94B49D7F9351
:103B90006F933F932F9380E795E09F938F938E01D0
:103BA0000F5F1F4F1F930F930E94B0A10FB6F894A1
:103BB000DEBF0FBECDBFE7EBFAE08491882341F072
:103BC0009091C00095FFFCCF8093C6003196F5CF51
:103BD000F8018191882339F09091C00095FFFCCFC6
:103BE0008093C600F6CF8091C00085FFFCCF8AE0AD
:103BF0008093C6006E960FB6F894DEBF0FBECDBFA1
:103C0000DF91CF911F910F9108950F931F93CF9341
:103C1000DF9383E50E94DA14882389F10E94CD1492
:103C20008C018F3F910509F050F580E50E94DA1470
:103C3000882331F00E94CD14EC0197FD20C002C012
:103C4000CDE0D0E0EBE9F3E081919191C817D9077D
:103C5000B1F083E0E13DF807B9F761E08C2F0E94F5
:103C60003498602F8C2F0E946D98B8018C2F0E9481
:103C70001E97289721F41093530500935205DF9166
:103C8000CF911F910F9108952F923F924F925F9283
:103C90006F927F928F929F92AF92BF92CF92DF925C
:103CA000EF92FF920F931F93CF93DF93CDB7DEB7C1
:103CB000C65ED1090FB6F894DEBF0FBECDBF8091AE
:103CC0004509882341F080914609882321F080919D
:103CD000470981111BC0CA51DF4F0FB6F894DEBFF0
:103CE0000FBECDBFDF91CF911F910F91FF90EF904D
:103CF000DF90CF90BF90AF909F908F907F906F900C
:103D00005F904F903F902F900C948A1086E50E9410
:103D1000DA148823D1F00E94CD14853070F0EBE4E2
:103D2000F5E08491882309F4AEC59091C00095FF19
:103D3000FCCF8093C6003196F4CFCF52DF4F8883FB
:103D4000C15DD0401816A4F406C021E0CF52DF4F69
:103D50002883C15DD040EBE2F5E08491882341F0F7
:103D60009091C00095FFFCCF8093C6003196F5CFAF
:103D700080E50E94DA148823B1F00E94CD149CEFF4
:103D8000980F9F3210F4382E10C0E7E0F5E08491D0
:103D9000882309F478C59091C00095FFFCCF8093EB
:103DA000C6003196F4CF7AE0372E80905B09909070
:103DB0005C09A0905D09B0905E0940905F09509049
:103DC00060096090610970906209C0906309D090A9
:103DD0006409E0906509F090660985E40E94DA14B0
:103DE000C052DF4F8883C05ED04088E50E94DA145D
:103DF000882321F10E949C14C753DF4F6883798385
:103E00008A839B83C95CD04020E030E0A9010E94F6
:103E1000F79987FD10C020E030E045E253E4C75336
:103E2000DF4F688179818A819B81C95CD0400E9483
:103E3000FA9B181694F485E095E038C020E030E055
:103E4000A901C501B4010E941E99C753DF4F6883C1
:103E500079838A839B83C95CD04089E50E94DA1408
:103E6000882309F43DC00E949C14C353DF4F68832C
:103E700079838A839B83CD5CD04020E030E0A90128
:103E80000E94F79987FD10C020E030E043E453E43E
:103E9000C353DF4F688179818A819B81CD5CD0409B
:103EA0000E94FA9B18165CF583E095E0CA51DF4F3B
:103EB0000FB6F894DEBF0FBECDBFDF91CF911F913B
:103EC0000F91FF90EF90DF90CF90BF90AF909F90B9
:103ED0008F907F906F905F904F903F902F90D9CCB4
:103EE00020E030E0A901C301B2010E941E99C35332
:103EF000DF4F688379838A839B83CD5CD0408CE4D9
:103F00000E94DA14182F882301F10E94CD14803109
:103F100070F0E0EDF4E08491882309F4B4C490914A
:103F2000C00095FFFCCF8093C6003196F4CFCE52EF
:103F3000DF4F8883C25DD040813061F432E0CE52E1
:103F4000DF4F3883C25DD04005C0CE52DF4F1882AC
:103F5000C25DD04083E50E94DA14882349F0112322
:103F600069F081E0CA52DF4F8883C65DD04012C03D
:103F7000CA52DF4F1882C65DD0400CC091E0CA52D1
:103F8000DF4F9883C65DD040A7E0CE52DF4FA883B5
:103F9000C25DD040CF52DF4FB881C15DD040B33059
:103FA000E4F420E030E040EA50E4C701B6010E94AA
:103FB0001E996B017C0185E492E00E94AB9320E0A6
:103FC00030E040E251E4C701B6010E94F79987FF53
:103FD00011C0C701B60114D80DC0E6EBF4E084911E
:103FE0008823F9F29091C00095FFFCCF8093C60022
:103FF0003196F5CFC353DF4F288139814A815B81E8
:10400000CD5CD040C753DF4F688179818A819B8125
:10401000C95CD0400E94EE170E948C11CF52DF4F36
:104020002881C15DD040332727FD3095CC52DF4F2A
:1040300039832883C45DD040C052DF4F3881C05ED1
:10404000D040332319F083E090E002C081E090E09B
:10405000CC52DF4FA880B980C45DD0406C01E12C08
:10406000F12C00EA10E4C353DF4F288139814A81E3
:104070005B81CD5CD040C753DF4F688179818A81F5
:104080009B81C95CD040D5D820E030E0A901609187
:1040900063097091640980916509909166090E9495
:1040A0001E990E940018CD52DF4F1882C35DD04088
:1040B000C12CD12C760126013701832D992787FD4C
:1040C0009095C452DF4F99838883CC5DD040CE5207
:1040D000DF4FA881C25DD040BB27A7FDB0951197E7
:1040E000C252DF4FB983A883CE5DD0400197CB5138
:1040F000DF4F99838883C55ED040CD52DF4FB881B2
:10410000C35DD0402B2E312CC452DF4F2881398122
:10411000CC5DD040221633060CF046C30E94569662
:104120000E94CA9864EF71E080E090E00E9485965A
:10413000CE52DF4FB881C25DD040B11129C0C35308
:10414000DF4F288139814A815B81CD5CD040C753E4
:10415000DF4F688179818A819B81C95CD0400E9450
:10416000EE174101880C991C880C991CC052DF4F36
:104170002881C05ED040222309F4D2C1CC52DF4F47
:10418000A880B980C45DD04023E0C22ED12CDDC10F
:1041900028E631E040E050E060E070E0CB010E94B2
:1041A000F3980E94999A6B017C012AE030E040E08C
:1041B00050E060E070E0CB010E94F3980E94999A71
:1041C00020E030E040EA50E40E94FA9B18161CF40C
:1041D0000FEF1FEF02C001E010E024E130E040E00B
:1041E00050E065E070E080E090E00E94F3980E946B
:1041F000999AC852DF4F688379838A839B83C85D0D
:10420000D040CF52DF4F3881C15DD04034309CF177
:10421000AB01BC0184EA94E00E94DA11B701A60167
:1042200089E994E00E94DA1164E670E080E090E0B1
:104230000E9485960130110519F0E0EDF2E012C000
:10424000E8EEF2E08191882381F09091C00095FF23
:10425000FCCF8093C600F6CF9091C00095FFFCCFB5
:104260008093C60081918111F7CF64E670E080E011
:1042700090E00E948596C952DF4F1882C75DD040FA
:10428000C801AA2797FDA095BA2FCF51DF4F888389
:104290009983AA83BB83C15ED040C952DF4F388166
:1042A000C75DD040832F90E0C252DF4FA881B98113
:1042B000CE5DD0408A179B070CF041CFCA52DF4F2A
:1042C0009881C65DD040992399F0CF51DF4F688126
:1042D00079818A819B81C15ED0400E94999A9B011D
:1042E000AC010E941E9920E030E040E952E420C079
:1042F0002DE230E040E050E069E170E080E090E0E5
:104300000E94F3982B013C01CF51DF4F68817981E6
:104310008A819B81C15ED0400E94999A4B015C01C9
:10432000C301B2010E94999A9B01AC01C501B4017D
:104330000E94CC9C9B01AC01C701B6010E941E9952
:104340006B017C0120E030E044EB53E40E94FA9BD7
:1043500018164CF420E030E044EB53E4C701B601FA
:104360000E941D99EDCF20E030E0A901C701B60100
:104370000E94F79987FF0BC020E030E044EB53E444
:10438000C701B6010E941E996B017C01ECCF2BED99
:104390003FE049E450E4C701B6010E94CC9C20E014
:1043A00030E044E353E40E94FE992B013C010E945B
:1043B000FB99C852DF4F288139814A815B81C85DF2
:1043C000D0400E94CC9C9B01AC01C753DF4F688159
:1043D00079818A819B81C95CD0400E941E994B01E2
:1043E0005C01C301B2010E942F9DC852DF4F28819A
:1043F00039814A815B81C85DD0400E94CC9C9B0181
:10440000AC01C353DF4F688179818A819B81CD5C88
:10441000D0400E941E992B013C0120E030E0A90110
:10442000C501B4010E94F79987FD11C020E030E07A
:1044300045E253E4C501B4010E94FA9B181654F4F6
:10444000812C912C45E2A42E43E4B42E03C0812C90
:10445000912C540120E030E0A901C301B2010E9477
:10446000F79987FD10C020E030E043E453E4C30136
:10447000B2010E94FA9B18164CF4412C512C33E4E3
:10448000632E762C03C0412C512C3201CF52DF4FCA
:10449000A881C15DD040A4308CF1E8E0F3E08191C7
:1044A000882339F09091C00095FFFCCF8093C6001F
:1044B000F6CFB501A40185E994E00E94DA11B301B9
:1044C000A20181E994E00E94DA11409163095091C0
:1044D000640960916509709166098BE894E00E9417
:1044E000DA118091C00085FFFCCFBAE0B093C6001E
:1044F00067E370E080E090E00E948596A30192015E
:10450000C501B4010E94EE17C952DF4F2881C75D73
:10451000D0402F5FC952DF4F2883C75DD040BDCE4A
:10452000CB51DF4F28813981C55ED040CC52DF4F5F
:10453000A880B980C45DD0402216330621F492E0F1
:10454000C92ED12C02C0C12CD12CE12CF12C00EAB7
:1045500010E4C353DF4F288139814A815B81CD5CF0
:10456000D040C753DF4F688179818A819B81C95CC4
:10457000D0400E941919E1E0F0E0EC0FFD1FE80DBA
:10458000F91D608371838283938310E0C12CD12C49
:104590007601E1E0F0E0EC0FFD1F34E0139FE00D49
:1045A000F11D11242081318142815381C701B6015F
:1045B0000E941E996B017C011F5FCD52DF4F8881E5
:1045C000C35DD040811728F79FEF291A390AB1013E
:1045D000882777FD8095982F0E94999A4B015C015E
:1045E0009B01AC01C701B6010E94FE992B013C0161
:1045F00010E0C12CD12C7601E1E0F0E0EC0FFD1FC2
:10460000A4E01A9FE00DF11D1124A3019201608125
:104610007181828193810E941D999B01AC010E944E
:10462000CC9C9B01AC01C701B6010E941E996B0195
:104630007C011F5FCD52DF4FB881C35DD040B11701
:10464000D8F6A50194010E94FE990E94399D6B0144
:104650007C01CF52DF4F2881C15DD04022300CF465
:1046600073C04AE050E0B1018BE394E00E94320F46
:10467000E6E8F4E08491882341F09091C00095FF32
:10468000FCCF8093C6003196F5CF4AE050E0C4528B
:10469000DF4F68817981CC5DD0408BE394E00E944C
:1046A000320FEFE7F4E08491882341F09091C0004D
:1046B00095FFFCCF8093C6003196F5CF40916309FA
:1046C00050916409609165097091660926E030E0B7
:1046D0008BE394E00E94041062E370E080E090E0DD
:1046E0000E948596CF52DF4F3881C15DD040323075
:1046F00091F1E7E7F4E08491882341F09091C000C4
:1047000095FFFCCF8093C6003196F5CF26E030E0D0
:10471000B301A2018BE394E00E940410ECE6F4E004
:104720008491882341F09091C00095FFFCCF809345
:10473000C6003196F5CF26E030E0B701A6018BE345
:1047400094E00E94041007C0CF52DF4F8881C15D02
:10475000D040813039F48091C00085FFFCCF9AE0D1
:104760009093C60062E370E080E090E00E9485963E
:1047700020E030E040EA50E4609163097091640900
:1047800080916509909166090E941E990E94001807
:10479000CD52DF4FA881C35DD040AF5FCD52DF4F18
:1047A000A883C35DD040A9CCCF52DF4F3881C15D13
:1047B000D040131614F5E5E6F4E08491882341F027
:1047C0009091C00095FFFCCF8093C6003196F5CF45
:1047D00026E030E0B301A2018BE394E00E940410D4
:1047E0008091C00085FFFCCF8AE08093C60069E11C
:1047F00070E080E090E00E948596E0E5F4E084912E
:10480000882341F09091C00095FFFCCF8093C600B3
:104810003196F5CF26E030E0B701A6018BE394E0B6
:104820000E9404108091C00085FFFCCF8AE0809335
:10483000C6008091C00085FFFCCF8AE08093C6004F
:1048400069E170E080E090E00E9485960E94AE11E0
:10485000CA51DF4F0FB6F894DEBF0FBECDBFDF9158
:10486000CF911F910F91FF90EF90DF90CF90BF906D
:10487000AF909F908F907F906F905F904F903F9000
:104880002F900C94AC10CA51DF4F0FB6F894DEBFD6
:104890000FBECDBFDF91CF911F910F91FF90EF9091
:1048A000DF90CF90BF90AF909F908F907F906F9050
:1048B0005F904F903F902F900895CF92DF92EF92AC
:1048C000FF920F931F93CF93DF9388E690E00E94AF
:1048D000EE1481113EC080916F0983FD3AC083E5DB
:1048E0000E94DA148823A9F10E949C146B017C01B8
:1048F0000091340510E0E801CC0FDD1FC556DF4EF6
:104900000E94669A79836883C8010E94BD8720E06F
:1049100030E040E752E4C701B6010E94F79918164B
:1049200064F085E395E0DF91CF911F910F91FF90A7
:10493000EF90DF90CF900C94098185E395E0DF91B3
:10494000CF911F910F91FF90EF90DF90CF900C943B
:104950005681DF91CF911F910F91FF90EF90DF90E3
:10496000CF900895E8E0F8E08491882341F0909199
:10497000C00095FFFCCF8093C6003196F5CFE09143
:10498000340584E0E89FF0011124EF57FF4E408189
:1049900051816281738121E030E08BE394E00E94D9
:1049A0000410E5E0F8E08491882341F09091C00084
:1049B00095FFFCCF8093C6003196F5CFE09134058A
:1049C000F0E0EE0FFF1FE556FF4E608171818827F2
:1049D00077FD8095982F0E94999AAB01BC0121E048
:1049E00030E08BE394E00E940410E1E0F8E0849171
:1049F000882341F09091C00095FFFCCF8093C600C2
:104A00003196F5CF40917B1050917C1060917D10D4
:104A100070917E1021E030E08BE394E00E9404105E
:104A2000EEEFF7E08491882341F09091C00095FF6C
:104A3000FCCF8093C6003196F5CF609199107091AC
:104A40009A10882777FD8095982F0E94999AAB013C
:104A5000BC0121E030E08BE394E00E940410E9EF18
:104A6000F7E08491882341F09091C00095FFFCCF3E
:104A70008093C6003196F5CF8FEF9FEF0E9413838E
:104A80004AE050E0BC018BE394E00E94320FE5EF76
:104A9000F7E08491882341F09091C00095FFFCCF0E
:104AA0008093C6003196F5CF8091340590E00E9446
:104AB00013834AE050E0BC018BE394E00C94320F86
:104AC00089E690E00E94EE14811115C0E9E0F4E05F
:104AD0008491882341F09091C00095FFFCCF809392
:104AE000C6003196F5CF3EDF8091C00085FFFCCF38
:104AF0008AE08093C600089583E50E94DA14882333
:104B000019F00E94CD1401C080E080936F09E7EB9B
:104B1000FAE08491882341F09091C00095FFFCCF8A
:104B20008093C6003196F5CFE9E4F4E084918823C0
:104B300041F09091C00095FFFCCF8093C600319664
:104B4000F5CF80916F09811103C0EBE3F4E03BC026
:104B50002FE334E080E090E060E0ACE240916F0948
:104B600050E0082E02C0559547950A94E2F740FFA1
:104B70001AC071E0760F662331F04091C00045FF06
:104B8000FCCFA093C600F90145915491FA016491BC
:104B9000662351F0E091C000E5FFFCCF6093C600B2
:104BA0004F5F5F4FF3CF762F01962E5F3F4F8530DB
:104BB000910561F0672FD2CF9091C00095FFFCCF97
:104BC0008093C600319684918111F6CF8091C00008
:104BD00085FFFCCF8AE08093C600089583E50E949C
:104BE000DA14882399F00E949C1420E030E04AE710
:104BF00054E40E94CC9C0E946B9A609318027093BC
:104C0000190280931A0290931B02089588E50E946E
:104C1000DA14811111C089E50E94DA1481110CC0E7
:104C20008AE50E94DA14811107C085E40E94DA1433
:104C3000811102C00C94CC7E0E94507E88E50E94B7
:104C4000DA14882319F0179A1092480989E50E940E
:104C5000DA14882319F0169A109249098AE50E94FD
:104C6000DA14882319F0159A10924A0985E40E94F3
:104C7000DA14882311F0149A089508953F924F9200
:104C80005F926F927F928F929F92AF92BF92CF92DC
:104C9000DF92EF92FF920F931F93CF93DF93B1EDCB
:104CA0008B2EB3E09B2ECBEADEE01BEBA12E1EE0A9
:104CB000B12E0BE61EE0312CF40181914F010E94D0
:104CC000DA14882309F458C0F3E03F124FC00E9461
:104CD0009C146B017C0120E030E040EA51E40E942A
:104CE000F79987FF3EC0A7019601688179818A8183
:104CF0009B810E94FE992B013C019B01AC016091BC
:104D00007F0E7091800E8091810E9091820E0E9494
:104D1000CC9C60937F0E7093800E8093810E909355
:104D2000820EA3019201F5016081718182819381DC
:104D30000E94CC9CF5016083718382839383F80188
:104D400060817181828193810E94979AA30192016F
:104D50000E94CC9C0E946B9AF801608371838283CD
:104D60009383C882D982EA82FB8206C00E949C1487
:104D7000688379838A839B8333942496F4E0AF0E0F
:104D8000B11C0C5F1F4F84E0381296CFDF91CF919A
:104D90001F910F91FF90EF90DF90CF90BF90AF9059
:104DA0009F908F907F906F905F904F903F9008956D
:104DB000E1E2F3E08191882339F09091C00095FF02
:104DC000FCCF8093C600F6CF8091C00085FFFCCF5A
:104DD0008AE08093C600EAE0F3E08491882341F002
:104DE0009091C00095FFFCCF8093C6003196F5CF1F
:104DF0001E9903C0E2E1F3E009C0ECE1F3E006C074
:104E00009091C00095FFFCCF8093C60081918111E5
:104E1000F7CF8091C00085FFFCCF8AE08093C60069
:104E2000E2E0F3E08491882341F09091C00095FF87
:104E3000FCCF8093C6003196F5CF379903C0E2E1ED
:104E4000F3E009C0ECE1F3E006C09091C00095FFEB
:104E5000FCCF8093C60081918111F7CF8091C00073
:104E600085FFFCCF8AE08093C600EAEFF2E08491F0
:104E7000882341F09091C00095FFFCCF8093C6003D
:104E80003196F5CF1D9903C0E2E1F3E009C0ECE1F2
:104E9000F3E006C09091C00095FFFCCF8093C60060
:104EA00081918111F7CF8091C00085FFFCCF8AE00E
:104EB0008093C600E2EFF2E08491882341F0909164
:104EC000C00095FFFCCF8093C6003196F5CF0299C4
:104ED00003C0E2E1F3E009C0ECE1F3E006C0909129
:104EE000C00095FFFCCF8093C60081918111F7CF60
:104EF0008091C00085FFFCCF8AE08093C600EAEE77
:104F0000F2E08491882341F09091C00095FFFCCF9E
:104F10008093C6003196F5CF1C9903C0E2E1F3E01F
:104F200009C0ECE1F3E006C09091C00095FFFCCF12
:104F30008093C60081918111F7CF8091C00085FFD9
:104F4000FCCF8AE08093C600E2EEF2E084918823F1
:104F500041F09091C00095FFFCCF8093C600319640
:104F6000F5CF019903C0E2E1F3E009C0ECE1F3E021
:104F700006C09091C00095FFFCCF8093C600819140
:104F80008111F7CF8091C00085FFFCCF8AE080932C
:104F9000C600089583E50E94DA148823F9F00E9480
:104FA0009C14AB01BC014093930E5093940E6093FC
:104FB000950E7093960E40938B0E50938C0E6093CB
:104FC0008D0E70938E0E8AEB92E00E94DA11809122
:104FD000C00085FFFCCF8AE08093C60080E50E9478
:104FE000DA148823B9F00E949C14AB01BC014093F1
:104FF000930E5093940E6093950E7093960E8DE9D8
:1050000092E00E94DA118091C00085FFFCCF8AE017
:105010008093C60082E50E94DA148823B9F00E94CA
:105020009C14AB01BC0140938F0E5093900E609383
:10503000910E7093920E8EE792E00E94DA118091A9
:10504000C00085FFFCCF8AE08093C60084E50E9403
:10505000DA148823B9F00E949C14AB01BC01409380
:105060008B0E50938C0E60938D0E70938E0E80E697
:1050700092E00E94DA118091C00085FFFCCF8AE0A7
:105080008093C600089583E50E94DA14882351F0C6
:105090000E949C146093970E7093980E8093990EC3
:1050A00090939A0E84E50E94DA14882351F00E94AE
:1050B0009C1460937B0E70937C0E80937D0E909376
:1050C0007E0E82E40E94DA14882361F00E949C1410
:1050D0000E946B9A6093CB0E7093CC0E8093CD0E92
:1050E0009093CE0E88E50E94DA14882351F00E9436
:1050F0009C146093870E7093880E8093890E909312
:105100008A0E8AE50E94DA14882351F00E949C14CA
:105110006093830E7093840E8093850E9093860E19
:1051200085E40E94DA14882351F00E949C14609355
:105130007F0E7093800E8093810E9093820E08955F
:105140008F929F92AF92BF92CF92DF92EF92FF9297
:105150000F931F93CF93DF9301EDC02E03E0D02E6A
:105160008BE5E82E89E0F82E04E515E0C0E0D0E0FC
:10517000F60181916F010E94DA14882309F10E94DF
:105180009C144B015C01F8012081318142815381E3
:105190000E941D999B01AC01F701608171818281A0
:1051A00093810E941E99F7016083718382839383A8
:1051B000F80180829182A282B382CE010E940B10FC
:1051C0002196F4E0EF0EF11C0C5F1F4FC330D105A8
:1051D00079F60E94FD16DF91CF911F910F91FF90FC
:1051E000EF90DF90CF90BF90AF909F908F900C94F6
:1051F000AC1085E40E94DA14811110C080E50E9491
:10520000DA148823A9F00E949C146093850270939D
:10521000860280938702909388020AC00E949C14A1
:105220000E94669A161617064CF7EDEBFAE0D5C009
:1052300089E40E94DA14882361F00E949C140E9481
:10524000B491609381027093820280938302909361
:10525000840284E40E94DA14882361F00E949C1482
:105260000E94C09160937D0270937E0280937F02C2
:105270009093800283E40E94DA14882351F00E9404
:105280009C146093790270937A0280937B029093CE
:105290007C028CE40E94DA14882341F00E949C1462
:1052A0000E94669A7093100260930F0280910F0221
:1052B00090911002C39734F082E390E09093100233
:1052C00080930F020E94DE82E7EBFAE0849188234C
:1052D00041F09091C00095FFFCCF8093C6003196BD
:1052E000F5CFEAE3F3E08191882339F09091C00093
:1052F00095FFFCCF8093C600F6CF40918502509178
:105300008602609187027091880222E030E08BE390
:1053100094E00E940410EEE3F3E08191882339F0D9
:105320009091C00095FFFCCF8093C600F6CF6091AE
:1053300081027091820280918302909184020E9486
:10534000BA91AB01BC0122E030E08BE394E00E9413
:105350000410E2E4F3E08191882339F09091C000D9
:1053600095FFFCCF8093C600F6CF60917D027091CF
:105370007E0280917F02909180020E94C691AB01D3
:10538000BC0122E030E08BE394E00E940410E6E4EC
:10539000F3E08191882339F09091C00095FFFCCF14
:1053A0008093C600F6CF4091790250917A026091C5
:1053B0007B0270917C0222E030E08BE394E00E945B
:1053C00004108091C00085FFFCCF1AC09091C000EE
:1053D00095FFFCCF8093C600319684918111F6CF62
:1053E000EAE4F3E08191882339F09091C00095FFC1
:1053F000FCCF8093C600F6CF8091C00085FFFCCF24
:105400008AE08093C600089580E50E94DA1488231C
:1054100051F00E949C1460939102709392028093C9
:1054200093029093940289E40E94DA14882361F035
:105430000E949C140E94B49160938D0270938E021E
:1054400080938F029093900284E40E94DA14882360
:1054500061F00E949C140E94C09160938902709335
:105460008A0280938B0290938C020E94DE82E7EB8B
:10547000FAE08491882341F09091C00095FFFCCF21
:105480008093C6003196F5CFEAE3F3E0819188235B
:1054900039F09091C00095FFFCCF8093C600F6CF05
:1054A0004091910250919202609193027091940206
:1054B00022E030E08BE394E00E940410EEE3F3E09E
:1054C0008191882339F09091C00095FFFCCF8093A3
:1054D000C600F6CF60918D0270918E0280918F028E
:1054E000909190020E94BA91AB01BC0122E030E0A1
:1054F0008BE394E00E940410E2E4F3E081918823BE
:1055000039F09091C00095FFFCCF8093C600F6CF94
:105510006091890270918A0280918B0290918C0235
:105520000E94C691AB01BC0122E030E08BE394E025
:105530000E9404108091C00085FFFCCF8AE0809318
:10554000C6000895EF92FF920F93CF93DF9385E407
:105550000E94DA14882321F00E94CD14EC0102C0CD
:10556000C0E0D0E083E40E94DA14882321F00E9496
:10557000CD147C0103C095E0E92EF12C85E50E9455
:10558000DA14882329F00E94CD1401E0892B09F454
:1055900000E083E50E94DA14882319F00E949C142D
:1055A00006C0D7FD09C060E070E086E193E4209773
:1055B00039F41092340504C060E070E08CE892E4A5
:1055C0009701AE010E94288BDF91CF910F91FF9040
:1055D000EF9008952F923F924F925F926F927F9239
:1055E0008F929F92AF92BF92CF92DF92EF92FF92F3
:1055F0000F931F93CF93DF9300D000D0CDB7DEB7CA
:1056000085E499E09C838B83E4E5F5E0FA83E98304
:105610000BE519E01E821D82212C312CEB81FC81CF
:105620008191FC83EB83882309F4ADC0ED81FE8179
:10563000E45EFD4F2081318142815381ED81FE8105
:10564000E85DFD4F60817181828193810E941E9986
:1056500020E030E040E05FE30E94CC9C9B01AC0185
:10566000F80160817181828193810E94FA9B1816F2
:105670004CF48D819E818D56954F0E9405109B01A3
:10568000AC0103C020E030E0A901F80180809180E6
:10569000A280B380C501B4010E941D996B017C01F9
:1056A00020E030E040EA51EC0E94FA9B18161CF012
:1056B000EDEBFAE038C020E030E040EA51E4C70109
:1056C000B6010E94F79987FFF3CFE981FA81408004
:1056D000518062807380A7019601C301B2010E94CC
:1056E0001D996B017C01A30192010E941D999B01F0
:1056F000AC01C501B4010E941E99F8016083718359
:1057000082839383E981FA81C082D182E282F3822B
:10571000C1010E940B1037C09091C00095FFFCCFD3
:105720008093C600319684918111F6CFE3E4F2E0D4
:105730008491882341F09091C00095FFFCCF809325
:10574000C6003196F5CF8091C00085FFFCCF8AE07E
:105750008093C60026960FB6F894DEBF0FBECDBF6D
:10576000DF91CF911F910F91FF90EF90DF90CF903D
:10577000BF90AF909F908F907F906F905F904F9071
:105780003F902F900895FFEF2F1A3F0A89819A8149
:1057900004969A838983ED81FE813496FE83ED839E
:1057A0000C5F1F4FF3E02F16310409F037CF0E9432
:1057B000FD1626960FB6F894DEBF0FBECDBFDF9163
:1057C000CF911F910F91FF90EF90DF90CF90BF90FE
:1057D000AF909F908F907F906F905F904F903F9091
:1057E0002F900C94AC10CF92DF92EF92FF92E7EBE8
:1057F000FAE08491882341F09091C00095FFFCCF9E
:105800008093C6003196F5CFEAE3F2E084918823D5
:1058100041F09091C00095FFFCCF8093C600319677
:10582000F5CF8091C00085FFFCCF80E28093C60059
:105830008AE50E94DA14882309F452C00E949C145D
:105840006B017C0120E030E040E050EC0E94FA9BCC
:1058500087FD0AC020E030E040EA50E4C701B6010D
:105860000E94F79918161CF4E2E3F2E018C0C09207
:105870001202D0921302E0921402F092150222E07A
:1058800030E0B701A6018BE394E00E94041034C01D
:105890009091C00095FFFCCF8093C6003196849113
:1058A0008111F6CF4AE050E06EEF7FEF8BE394E09A
:1058B0000E94320FEAE2F2E08491882341F0909155
:1058C000C00095FFFCCF8093C6003196F5CF4AE02B
:1058D00050E065E070E08BE394E00E94320F0CC072
:1058E00040911202509113026091140270911502BE
:1058F00087E292E00E94DA118091C00085FFFCCF20
:105900008AE08093C600FF90EF90DF90CF900895DB
:1059100088E50E94DA14882339F00E949C140E94C2
:10592000669A80E00E94197F8AE50E94DA14882333
:1059300039F00E949C140E94669A81E00E94197FAF
:1059400085E40E94DA14882339F00E949C140E9496
:10595000669A82E00C94197F08951F93CF93DF938A
:1059600083E50E94DA14811104C0C1EDD3E010E098
:105970000FC0C0E00E949C140E946B9A8C2F0E9462
:10598000867FCF5FC530B1F7F0CF1F5F143069F06D
:1059900089910E94DA148823C1F30E949C140E940A
:1059A0006B9A812F0E94867FF0CF82E40E94DA14E6
:1059B000882339F00E949C140E946B9A84E00E9414
:1059C000867FDF91CF911F910C944D801F93CF93D1
:1059D000DF9383E50E94DA14882309F44AC00E9409
:1059E000CD148130910539F0029709F042C0C1ED24
:1059F000D3E010E021C0C1EDD3E010E089910E9416
:105A0000DA14882341F00E949C140E94669A4FEF9A
:105A1000812F0E94487F1F5F143081F782E40E942B
:105A2000DA14882331F10E949C140E94669A4FEF89
:105A30001DC01F5F143079F089910E94DA14882309
:105A4000C1F30E949C140E94669A462F6FEF812F2B
:105A50000E94487FEECF82E40E94DA14882349F046
:105A60000E949C140E94669A462F6FEF84E00E9469
:105A7000487FDF91CF911F910C944D80CF92DF92A0
:105A8000EF92FF920F931F93CF93DF93882361F1DF
:105A9000E7EBFAE09491992341F02091C00025FFB3
:105AA000FCCF9093C6003196F5CF9091C00095FF42
:105AB000FCCF94E59093C6004AE050E0682F8BE35A
:105AC00094E00E94690FEAE4F3E08191882339F0C1
:105AD0009091C00095FFFCCF8093C600F6CF8091D7
