:100000000C9453250C9480250C9480250C94802509
:100010000C9480250C9480250C9480250C948025CC
:100020000C9480250C9480250C9480250C948025BC
:100030000C9480250D9400290C9480250C94802527
:100040000C9480250C94DA2F0C9480250C94802538
:100050000C9480250C9480250C94B3E50D945725C1
:100060000C9480250C941E3A0C9480250C948025C9
:100070000C9480250C9480250C9480250C9480256C
:100080000C9480250C9480250C9480250C9480255C
:100090000C9480250C9480250C9480250D94AD1D26
:1000A0000C9480250C9480250C9480250C9480253C
:1000B0000C9480250C9480250C9480250C9480252C
:1000C0000C9480250C9480250C9480250C9480251C
:1000D0000C9480250C9480250C9480250C9480250C
:1000E0000C948025084AD73B3BCE016E84BCBFFDF3
:1000F000C12F3D6C74319ABD56833DDA3D00C77FF8
:1001000011BED9E4BB4C3E916BAAAABE0000008090
:100110003F05A84CCDB2D44EB93836A9020C50B91F
:10012000918688083CA6AAAA2ABE000000803F4506
:10013000313A200045303A20005A3A2000593A20FE
:1001400000583A20004D53312C4D53322050696EE7
:10015000730A0024F404D9201BC40C5C0E9804C458
:10016000095F0265077101F405F900FB04B300485B
:10017000048700C10369005803550003034500BE0E
:10018000023A008402310053022A002902250004A9
:10019000022000E4011C00C8011900AF01170098FB
:1001A000011400840113007101100061011000515D
:1001B000010E0043010D0036010B002B010B002046
:1001C000010B00150109000C01090003010800FBE7
:1001D000000800F3000800EB000700E4000600DE62
:1001E000000600D8000600D2000600CC000500C7BB
:1001F000000500C2000500BD000400B9000400B500
:10020000000400B1000400AD000400A9000400A532
:10021000000300A20003009F0004009B000300985D
:100220000003009500020093000300900003008D7E
:100230000002008B00030088000200860002008498
:10024000000300810002007F0002007D0002007BAD
:1002500000020079000200770001007600020074BD
:1002600000020072000100710002006F0002006DC8
:100270000001006C0002006A0001006900020067D2
:1002800000010066000100650001006400020062D8
:1002900000010061000100600001005F0002005DDC
:1002A0000001005C0001005B0001005A00010059E0
:1002B00000010058000100570001005600010055E0
:1002C00000010054000100530000005300010052DF
:1002D00000010051000100500001004F0001004EDC
:1002E0000000004E0001004D0001004C0001004BD9
:1002F0000000004B0001004A0001004900010048D5
:1003000000000048000100470001004600000046D0
:1003100000010045000000450001004400010043C9
:1003200000000043000100420000004200010041C3
:1003300000000041000100400001003F0000003FBC
:100340000001003E0000003E0001003D0000003DB5
:100350000001003C0000003C0000003C0001003BAC
:100360000000003B0001003A0000003A00010039A3
:10037000000000390001003800000038000000389B
:100380000001003700000037000100360000003691
:100390000000003600010035000000350000003587
:1003A000000100340000003400000034000100337C
:1003B0000000003300000033000100320000003272
:1003C0000000003200010031000000310000003167
:1003D0000001003000000030000000300001002F5C
:1003E0000000002F0000002F0000002F0001002E51
:1003F0000000002E0000002E0001002D0000002D46
:100400000000002D0000002D0001002C0000002C39
:100410000000002C0000002C0001002B0000002B2D
:100420000000002B0000002B0001002A0000002A21
:100430000000002A0000002A000100290000002915
:100440000000002900000029000000290001002808
:1004500000000028000000280000002800000028FC
:1004600000010027000000270000002700000027EF
:1004700000000027000100260000002600000026E2
:1004800000000026000000260001002500000025D5
:1004900000000025000000250000002500000025C8
:1004A00000010024000000240000002400000024BB
:1004B00000000024000100230000002300000023AE
:1004C00000000023000000230000002300000023A0
:1004D0000001002200000022000000220000002293
:1004E0000000002200000022000100210000002185
:1004F0000000002100000021000000210000002178
:100500000000002100010020000000200000002069
:10051000000000200000002000000020000000205B
:10052000000000200001001F0000001F0000001F4D
:100530000000001F0000001F0000001F0000001F3F
:100540000001001E0000001E0000001E0000001E32
:1005500000000024F4D43050C38E20C2A240178281
:100560008B7011127A910D816CD90AA861E108C7CC
:10057000586607615143061E4B5D05C145A7041A25
:10058000411104093D9803713931034036DB02659E
:10059000339102D4305402802E1D02632CEE01757B
:1005A0002AC501B028A001102781018F2564012BE5
:1005B000244B01E0223401AC211F018D200D01806C
:1005C0001FFC00841EED00971DDF00B81CD200E662
:1005D0001BC600201BBC00641AB200B219A8000A96
:1005E00019A0006A189900D117910040178B00B527
:1005F00016840031167E00B31579003A157300C7D2
:10060000146F0058146A00EE136600881363002507
:10061000135E00C7125B006C12570015125400C124
:1006200011510070114F0021114B00D61049008D5F
:100630001047004610440002104200C00F400080E6
:100640000F3E00420F3C00060F3B00CB0E380093DC
:100650000E37005C0E3500270E3400F30D3200C15A
:100660000D3100900D3000600D2E00320D2D000573
:100670000D2C00D90C2B00AE0C2900850C29005C38
:100680000C2700350C27000E0C2600E80B2400C4B4
:100690000B2400A00B23007D0B23005A0B210039F3
:1006A0000B2100180B2000F80A1F00D90A1E00BBFE
:1006B0000A1E009D0A1D00800A1D00630A1C0047D7
:1006C0000A1B002C0A1B00110A1A00F7091A00DD88
:1006D000091900C4091900AB091900920917007B18
:1006E000091800630917004C091600360916002086
:1006F0000916000A091500F5081500E0081400CCD9
:10070000081400B8081400A4081400900813007D11
:100710000812006B08130058081200460812003433
:10072000081100230811001208110001081100F03F
:10073000071000E0071000D0071000C0071000B03D
:10074000070F00A107100091070E0083070F007428
:10075000070F0065070E0057070E0049070E003B04
:10076000070D002E070E0020070D0013070D0006D1
:10077000070D00F9060C00ED060D00E0060C00D494
:10078000060C00C8060C00BC060C00B0060C00A449
:10079000060B0099060C008D060B0082060B0077F5
:1007A000060B006C060B0061060A0057060B004C96
:1007B000060A0042060A0038060A002E060A00242D
:1007C000060A001A060A001006090007060A00FDBC
:1007D000050900F4050900EB050900E2050900D947
:1007E000050900D0050900C7050900BE050900B5C7
:1007F000050800AD050800A50509009C0508009442
:100800000508008C050800840508007C05080074B4
:100810000508006C050700650508005D0507005622
:100820000508004E05070047050700400508003889
:10083000050700310507002A050700230507001CEE
:10084000050600160507000F05070008050600024B
:10085000050700FB040600F5040700EE040600E8A7
:10086000040600E2040700DB040600D5040600CFFE
:10087000040600C9040600C3040600BD040600B750
:10088000040600B1040500AC040600A6040600A09E
:100890000405009B04060095040500900406008AE8
:1008A00004050085040500800406007A040500752F
:1008B000040500700405006B040500660405006172
:1008C0000405005C04050057040500520405004DB2
:1008D00004050048040500430405003E0404003AF2
:1008E00004050035040500300404002C040500272D
:1008F000040400230405001E0404001A0404001666
:10090000040500110404000D04040009040500049A
:1009100004040000040400FC030400F8030400F4D1
:10092000030400F0030400EC030400E8030400E403
:10093000030400E0030400DC030400D8030400D433
:10094000030400D0030400CC030400C8030300C563
:10095000030300656E6473746F7073206869743A82
:10096000205A00205A3A00656E6473746F707320C9
:100970006869743A20590020593A00656E647374AE
:100980006F7073206869743A20580020583A0065E7
:100990006E6473746F7073206869743A2000000687
:1009A0000900FE06018902FE20FFFE07FE06FE008A
:1009B0000000060007010606060200808080800015
:1009C00080030303060103A0A0A00507070600FF9C
:1009D0005050F850F850500509090600FE2070A844
:1009E000A07028A870200608080600FF40A848103C
:1009F000204854080507070600FF60909060989013
:100A0000680103030602038080800207070602FFD5
:100A1000408080808080400207070602FF804040BF
:100A2000404040800505050600008850F8508805C4
:100A300005050600002020F820200204040602FE1E
:100A4000C0404080050101060002F80202020602D1
:100A500000C0C0040606060100101020408080047B
:100A6000060606010060909090906003060606015D
:100A70000040C0404040E0040606060100609010BF
:100A80002040F0040606060100F020601010E0058A
:100A9000060606000010305090F810040606060105
:100AA00000F080E01010E00406060601006080E01F
:100AB000909060040606060100F0101020404004EB
:100AC000060606010060906090906004060606012C
:100AD00000609090701060020505060200C0C00022
:100AE000C0C00207070602FEC0C000C0404080052B
:100AF0000505060000186080601805030306000164
:100B0000F800F8050505060000C0300830C00407ED
:100B100007060100609010604000400506060600D0
:100B2000007090A8B080700506060600002050886E
:100B3000F88888050606060000F088F08888F0042A
:100B4000060606010060908080906004060606019B
:100B500000E090909090E0040606060100F080E02E
:100B60008080F0040606060100F080E080808004AA
:100B70000606060100609080B0906004060606013B
:100B8000009090F0909090030606060100E040402F
:100B90004040E00506060600003810101090600482
:100BA000060606010090A0C0A0909004060606016B
:100BB000008080808080F005060606000088D8A8A6
:100BC000A8888804060606010090D0B09090900591
:100BD00006060600007088888888700406060601EC
:100BE00000E09090E080800407070601FF6090908D
:100BF000D0B06010040606060100E09090E09090EE
:100C00000406060601006090402090600506060676
:100C10000000F82020202020040606060100909005
:100C200090909060040606060100909090F060603D
:100C30000506060600008888A8A8D88805060606C6
:100C4000000088502020508805060606000088888D
:100C500050202020040606060100F010204080F0FD
:100C6000030606060100E080808080E00406060698
:100C70000100808040201010030606060100E020DD
:100C8000202020E005030306000320508805010111
:100C90000600FEF802020206020480400404040674
:100CA0000100709090700406060601008080E090BC
:100CB00090E00404040601007080807004060606BB
:100CC000010010107090907004040406010060B0E0
:100CD000C070040606060100205040E040400406B3
:100CE000060601FE60909070106004060606010082
:100CF0008080E09090900306060601004000C0400E
:100D000040E00308080601FE200060202020A040EB
:100D10000406060601008080A0C0A0900306060617
:100D20000100C040404040E0050404060000D0A897
:100D3000A888040404060100E090909004040406CE
:100D40000100609090600406060601FEE09090E0CD
:100D500080800406060601FE709090701010040456
:100D600004060100A0D0808004040406010070C0C5
:100D700030E00406060601004040E0405020040434
:100D80000406010090909070040404060100909005
:100D9000606005040406000088A8A8500404040646
:100DA0000100906060900406060601FE909090702D
:100DB0009060040404060100F02040F003070706D9
:100DC0000100204040804040200107070602FF80CC
:100DD00080808080808003070706010080404020DB
:100DE00040408004020206010350A0FFFFFFFFFF06
:100DF000FFFFFFFFFFFFFFFFFFFFFFFFFFFFFFFF03
:100E0000FFFFFFFFFFFFFFFFFFFFFFFF00000006E8
:100E1000000701060606020080008080808004062C
:100E2000060601FF2070A0A070200507070600FF3E
:100E3000304840F04040F8050505060000A85088FD
:100E400050A80506060600008850F820F820010783
:100E5000070602FF8080800080808004070706016B
:100E6000FF708060906010E0030101060105A0069C
:100E70000707060000788494A49484780305050687
:100E8000010160A06000E00505050600002850A0F3
:100E90005028040303060100F010100401010601AC
:100EA00002F00607070600007884B4A4A48478043E
:100EB0000101060105F004030306010260906005CC
:100EC00007070600FF2020F8202000F8030505068C
:100ED000010140A02040E0030505060101C02040BB
:100EE00020C002020206020440800405050601FF3C
:100EF0009090B0D08005060606000078E8E86828E3
:100F000028010101060202800202020602FE408060
:100F100003050506010140C04040E0030505060148
:100F20000140A04000E0050505060000A050285043
:100F3000A00508080600FF40C0405070307810053A
:100F400008080600FF40C04050680810380508082F
:100F50000600FFC0204030F030781004070706017B
:100F600000200020608090600507070600004020F8
:100F70002050708888050707060000102020507058
:100F800088880507070600002050205070888805D3
:100F900007070600002850205070888805070706BC
:100FA00000005000205070888805070706000020C8
:100FB00050205070888805060606000078A0F0A032
:100FC000A0B80408080601FE609080809060204070
:100FD0000407070601004020F080E080F0040707C6
:100FE0000601002040F080E080F0040707060100C1
:100FF0002050F080E080F00407070601005000F068
:1010000080E080F00307070601008040E040404098
:10101000E00307070601002040E0404040E00307EE
:101020000706010040A0E0404040E003070706013A
:1010300000A000E0404040E00506060600007048C1
:10104000E848487004070706010050A090D0B0900F
:10105000900407070601004020609090906004070C
:101060000706010020406090909060040707060189
:10107000002050609090906004070706010050A087
:101080006090909060040707060100500060909007
:101090009060050505060000885020508804080867
:1010A0000601FF1070B0B0D0D0E080040707060141
:1010B00000402090909090600407070601002040B7
:1010C0009090909060040707060100205090909047
:1010D0009060040707060100500090909090600512
:1010E000070706000010208850202020040606066E
:1010F000010080E09090E080040606060100609008
:10110000A0A090A004070706010040200070909066
:1011100070040707060100204000709090700407DB
:101120000706010020500070909070040707060128
:101130000050A00070909070040606060100500058
:101140007090907004070706010020502070909066
:101150007005040406000070A8B0780406060601B5
:10116000FE708080702040040707060100402000C8
:1011700060B0C07004070706010020400060B0C0E6
:101180007004070706010020500060B0C07004061C
:1011900006060100500060B0C0700307070601009A
:1011A000804000C04040E0030707060100204000E7
:1011B000C04040E003070706010040A000C04040D7
:1011C000E0030606060100A000C04040E004070757
:1011D000060100306010709090600407070601005F
:1011E00050A000E090909004070706010040200006
:1011F0006090906004070706010020400060909016
:10120000600407070601002050006090906004070A
:101210000706010050A000609090600406060601D9
:10122000005000609090600505050600002000F861
:10123000002004040406010070B0D0E00407070693
:1012400001004020009090907004070706010020E4
:101250004000909090700407070601002050009015
:101260009090700406060601005000909090700463
:1012700009090601FE2040009090907090600408DB
:10128000080601FE8080E09090E080800408080657
:1012900001FE500090909070906000060900FE07DB
:1012A0000199032B20FFFE08FE07FE000000060048
:1012B0000001070706020080808080800080030311
:1012C00003060104A0A0A00507070600005050F87F
:1012D00050F850500507070600002070A0702870D5
:1012E0002005070706000048A8502050A8900507D1
:1012F0000706000040A0A040A89068010303060272
:101300000480808003070706010020408080804021
:1013100020030707060100804020202040800505AB
:10132000050600018850F8508805050506000120D3
:1013300020F820200303030601FF6040800501011F
:10134000060003F80303030601FF40E0400507071A
:1013500006000008081020408080050707060000EE
:10136000205088888850200507070600002060A0CC
:10137000202020F80507070600007088083040800C
:10138000F8050707060000F8081030088870050700
:101390000706000010305090F810100507070600EF
:1013A00000F880B0C80888700507070600003040C4
:1013B00080B0C88870050707060000F808101020E4
:1013C000404005070706000070888870888870050F
:1013D0000707060000708898680810600307070672
:1013E00001FF40E0400040E0400307070601FF40E6
:1013F000E0400060408004070706010010204080A4
:10140000402010050303060002F800F80407070651
:101410000100804020102040800507070600007072
:10142000881020200020050707060000708898A873
:10143000B0807005070706000020508888F888886B
:10144000050707060000F04848704848F005070700
:1014500006000070888080808870050707060000FD
:10146000F04848484848F0050707060000F8808023
:10147000F08080F8050707060000F88080F0808083
:10148000800507070600007088808098887005072F
:1014900007060000888888F88888880307070601FF
:1014A00000E04040404040E00507070600003810DB
:1014B00010101090600507070600008890A0C0A0DB
:1014C0009088050707060000808080808080F805EE
:1014D00007070600008888D8A888888805070706B7
:1014E00000008888C8A8988888050707060000704B
:1014F000888888888870050707060000F08888F0CB
:101500008080800508080600FF7088888888A87099
:1015100008050707060000F08888F0A090880507F6
:1015200007060000708880700888700507070600AD
:1015300000F82020202020200507070600008888CA
:1015400088888888700507070600008888885050BA
:101550005020050707060000888888A8A8D88805B5
:10156000070706000088885020508888050707066E
:10157000000088885020202020050707060000F87A
:101580000810204080F8030707060100E0808080F3
:101590008080E005070706000080804020100808D2
:1015A000030707060100E02020202020E0050303B8
:1015B0000600042050880501010600FFF80202021F
:1015C0000602068040050505060000700878887848
:1015D0000507070600008080B0C888C8B00505056B
:1015E000060000708880887005070706000008085C
:1015F00068988898680505050600007088F880706E
:10160000050707060000304840F040404005070746
:101610000600FE78888878088870050707060000AD
:101620008080B0C88888880307070601004000C092
:10163000404040E00409090601FE1000301010107F
:1016400090906005070706000080808890E09088F1
:10165000030707060100C04040404040E005050583
:10166000060000D0A8A8A888050505060000B0C897
:101670008888880505050600007088888870050739
:10168000070600FEB0C888C8B080800507070600BE
:10169000FE68988898680808050505060000B0C827
:1016A00080808005050506000070807008F0050741
:1016B000070600004040F0404048300505050600A0
:1016C00000888888986805050506000088885050BD
:1016D000200505050600008888A8A8500505050610
:1016E000000088502050880507070600FE8888986B
:1016F00068088870050505060000F8102040F80409
:101700000707060100304020C020403001070706CF
:10171000020080808080808080040707060100C06E
:101720002040304020C005030306000448A8900074
:1017300000000100000000000100000000000100A6
:101740000000000001000000000001000000000097
:101750000100000000000100000000000100000086
:101760000000010000000000010000000000010076
:101770000000000001000000000001000000000067
:101780000100000000000100000000000100000056
:101790000000010000000000010000000000010046
:1017A0000000000001000000000001000000000037
:1017B0000100000000000100000000000100000026
:1017C0000000010000000000010000000000010016
:1017D0000000000001000000000001000000000007
:1017E00001000000000001000000000001000000F6
:1017F00000000100000000000600000107070602CB
:1018000000800080808080800507070600FF207828
:10181000A0A0A07820050707060000304840E0405F
:1018200048B0050505060000887050708805080856
:101830000600FF88885020F82020200107070602B4
:1018400000808080008080800508080600FF70808E
:10185000E09048380870030101060107A00507075A
:101860000600007088A8C8A8887004060606010152
:101870007090B05000F0060505060000244890481E
:1018800024040202060102F010040101060103F023
:101890000507070600007088E8C8C88870050101C0
:1018A000060007F803030306010440A040050606EE
:1018B0000600002020F82020F8040505060103603A
:1018C000902040F0040505060103E0106010E002DE
:1018D000020206020640800506060600FF88888888
:1018E000C8B08005070706000078E8E868282828BF
:1018F000010101060203800202020602FE4080038B
:10190000050506010340C04040E00406060601014B
:101910006090906000F0060505060000904824489D
:10192000900609090600FF40C04040E40C143C0446
:101930000609090600FF40C04040E81404081C05E1
:1019400009090600FFC0204020C8182878080507AC
:1019500007060000200020204088700508080600C7
:10196000004020708888F888880508080600001064
:1019700020708888F88888050808060000205070C4
:101980008888F8888805080806000048B0708888AC
:10199000F888880508080600005000708888F888D4
:1019A000880508080600002050708888F888880696
:1019B00007070600003C50909CF0909C0509090622
:1019C00000FE70888080808870204005080806002E
:1019D0000040F88080F08080F805080806000010BC
:1019E000F88080F08080F805080806000020F88064
:1019F00080F08080F805080806000050F88080F02C
:101A00008080F80308080601008040E04040404024
:101A1000E00308080601002040E040404040E003A9
:101A2000080806010040A0E040404040E0030808EC
:101A3000060100A000E040404040E0050707060026
:101A400000F04848E84848F005080806000028501B
:101A500088C8A89888880508080600004020708873
:101A6000888888700508080600001020708888881B
:101A700088700508080600002050708888888870E3
:101A800005080806000028507088888888700508B6
:101A900008060000500070888888887005050506D3
:101AA00000008850205088050707060000709898AD
:101AB000A8C8C870050808060000402088888888E3
:101AC00088700508080600001020888888888870BB
:101AD00005080806000020500088888888700508DE
:101AE0000806000050008888888888700508080665
:101AF00000001020888850202020050707060000DD
:101B000080F088F0808080050707060000708890CC
:101B1000A09088B0050808060000402000700878F2
:101B2000887805080806000010200070087888787A
:101B3000050808060000205000700878887805081D
:101B40000806000028500070087888780507070606
:101B5000000050007008788878050808060000200A
:101B60005020700878887806050506000078147CF7
:101B7000907C0507070600FE70888088702040056D
:101B800008080600004020007088F88070050808EA
:101B90000600001020007088F88070050808060014
:101BA000002050007088F88070050707060000507C
:101BB000007088F88070030808060100804000C0AB
:101BC000404040E0030808060100408000C040405B
:101BD00040E003080806010040A000C0404040E08B
:101BE000060A0A0600FEA4A800FC8480808084FC0B
:101BF000060A0A0600FE549400FC8404040484FCD3
:101C0000050808060000285000B0C8888888050824
:101C1000080600004020007088888870040A0A06C0
:101C200002FE30408090909090909090040A0A06B6
:101C300000FEC020109090909090909006070706AC
:101C40000001448C8C8480403C0607070600018814
:101C5000C4C4840408F00505050600012000F8004E
:101C60002005080806000040F0C88888987810050C
:101C70000808060000E0F88888888888F8050505C7
:101C80000600012030F8302005080806000020700A
:101C9000F820202020E00509090600FF2070A8A8F0
:101CA000B8888850200509090600FFE080C0B0A868
:101CB000A83028280509090600FFF8A88888888820
:101CC00088A8F8050A0A0600FE205050505088A83F
:101CD000A888700000000000000000000000007FE5
:101CE000FFE00000000000000000000000007000A5
:101CF000E0000000000000000000000000630C6035
:101D0000000000000000000000000000470E20005E
:101D100000000000000000000000004F0F20000045
:101D2000000000000000000000005F0FA0000000A5
:101D30000000000000000000005E07A07F8000009F
:101D40000000000000410400406020FFC0000000CF
:101D50000000000020820040F020FFC000000000D2
:101D600000000020820040F020FFC00000000000C2
:101D700000004104004060207F800000000000005F
:101D8000008208005E07A07F8000000000000001C4
:101D90000410005F0FA0FFC000000000000001045D
:101DA00010004F0F20FFC00000000000000082085C
:101DB00000470E20FFC000000000000000410400AA
:101DC000630C603F00000000000000000000007095
:101DD00000E01E0000000000000001FFFF807FFF08
:101DE000E00C0000000000000001FFFF8000000088
:101DF0000000000000000000000000007FFFE00085
:101E000000000000000000000000007000E0000082
:101E10000000000000000000000061F86000000009
:101E200000000000000000000041F8200000000059
:101E3000000000000000000040F020000000000052
:101E400000000000000000406020000000000000D2
:101E50000000000000005801A07F8000000000008A
:101E600000004104005C63A0FFC00000000000000F
:101E7000002082005EF7A0FFC0000000000000000C
:101E80002082005EF7A0FFC00000000000000041BB
:101E900004005C63A07F8000000000000000820856
:101EA000005801A07F800000000000000104100025
:101EB000406020FFC000000000000001041000404E
:101EC000F020FFC00000000000000082080041F880
:101ED00020FFC00000000000000041040061F86025
:101EE0003F00000000000000000000007000E01E45
:101EF0000000000000000001FFFF807FFFE00C00F9
:101F000000000000000001FFFF8000000059002DCC
:101F10002D3A2D2D20202D2D2E2D25002020203155
:101F200030302500202000B02000B020000000004C
:101F300000000000000000000000000000000000A1
:101F40000000000000000000000000000000000091
:101F50000C000000000000000C0000000000000069
:101F6000120000000000000023000000000000003C
:101F700021000000000000004C8000000000000074
:101F80005E800000000000009240000000000000A1
:101F9000A14000000000000121200000000000021C
:101FA0007F90000000000002001000000000000709
:101FB000FFF8000000000004000800000000000816
:101FC00000040000000000080006000000000010EF
:101FD00000020000000000301E0100000000002090
:101FE0007F81000000000041FFE08000000000430E
:101FF000FCF08000000000873B7840000000018E6C
:10200000DBFC60000000010FEBCC20000000021F91
:10201000EDB610000000021FDEB61000000004390B
:10202000CD7F080000000436E0FF08000000087EB5
:10203000C0BB84000000187F005D86000000107F98
:10204000C0ED82000000203CC07301000000203B76
:10205000337F01000000701BE77E03800000C81D75
:10206000EEDE04C00000880FDEDC04400001240F17
:10207000DF3C092000012607DBF81920000272036B
:10208000E7F0139000025101FFE022900004890064
:102090007F802448000904801E004824000BFE4075
:1020A0000000DFF40010004000008002001FFFFF6E
:1020B000FFFFFFFE00000000000000000000000025
:1020C00000000000000000000000000000102210CE
:1020D0003C3C0E1F0010221004221104001022109C
:1020E0000822110400102210083C110400102210D4
:1020F000102211040010221020221104001E1C1EA8
:102100003C3C0E0400000000000000000000000045
:1021100000000000000000000000000000000000BF
:1021200000000000000000000000000000000000AF
:10213000000000000000000000000000000000009F
:10214000000000000000000000000000000000008F
:10215000000000000000000000000000000000007F
:1021600000000000000000000000004E6F205344FB
:102170002063617264005072696E742066726F6DC4
:102180002053440053746F70207072696E74005253
:102190006573756D65207072696E7400506175733A
:1021A00065207072696E7400436F6E666967757240
:1021B0006174696F6E0054656D70657261747572DB
:1021C00065004D6F76656D656E740054756E6500C3
:1021D000496E666F2073637265656E005072696E3A
:1021E000742066726F6D205344005072696E7420C3
:1021F00066726F6D20534400F92E2E004D61696E9A
:10220000004D3234004D3233202573005072696E18
:10221000742061626F7274656400526573746F72CA
:102220006520746F20466163746F7279004C6F6132
:10223000642073657474696E6773005361766520FA
:1022400073657474696E677300416476616E63656B
:10225000642073657474696E6773004D61696E0004
:102260004573746570732F6D6D004573746570737D
:102270002F6D6D005A73746570732F6D6D005A73F6
:10228000746570732F6D6D005973746570732F6D65
:102290006D005973746570732F6D6D00587374659C
:1022A00070732F6D6D005873746570732F6D6D00B2
:1022B000412D7265747261637400412D7265747290
:1022C00061637400416D6178206500416D61782023
:1022D0006500416D6178207A00416D6178207A0057
:1022E000416D6178207900416D6178207900416D00
:1022F0006178207800416D617820780056547261D1
:1023000076206D696E005654726176206D696E009C
:10231000566D696E00566D696E00566D6178206568
:1023200000566D6178206500566D6178207A005600
:102330006D6178207A00566D6178207900566D6164
:1023400078207900566D6178207800566D6178208C
:10235000780056652D6A65726B0056652D6A657248
:102360006B00567A2D6A65726B00567A2D6A65721B
:102370006B005678792D6A65726B005678792D6AF4
:1023800065726B00416363656C00416363656C005B
:102390005A204F666673657400436F6E6669677591
:1023A000726174696F6E005A204F666673657400BF
:1023B0007F80FFC0FFC0FFC07F807F80FFC0FFC065
:1023C000FFC03F001E000C00FFFFFF001FE00030B9
:1023D0003000400800800401800601000207C002AE
:1023E000038002010002000002000002000006005B
:1023F0000004000008003030001FE0060006000660
:10240000000600060006003FC01F800F0006000700
:10241000F8000C0C00100200200100600180400058
:10242000804003E04001C0400080400000400000C8
:102430006000002000001000000C0C0007F80006EF
:10244000000F001F803FC0060006000600060006C1
:1024500000060006000F001F803FC00600060006B1
:10246000000600060006000600060006000600063C
:102470000006000600060006000600060006003FF3
:10248000C01F800F000600436F6F6C646F776E0093
:1024900046616E2073706565640046616E207370DE
:1024A0006565640042656400426564004E6F7A7A37
:1024B0006C65004E6F7A7A6C65004D61696E004DF7
:1024C0006F76652061786973004D38340044697314
:1024D00061626C6520737465707065727300473259
:1024E00038004175746F20686F6D65004D61696ECD
:1024F000004D6F766520302E316D6D004D6F766525
:1025000020316D6D004D6F76652031306D6D004D61
:102510006F76656D656E740045787472756465726A
:10252000004D6F7665205A004D6F76652059004D3D
:102530006F76652058004D6F76652061786973006D
:102540004578747275646572005A00590058004DE0
:10255000363030004368616E67652066696C616D76
:10256000656E74004170707278204C6179657200FC
:102570004170707278204C617965720046616E20FE
:1025800073706565640046616E20737065656400F4
:10259000466C6F7700466C6F770042656400426559
:1025A00064004E6F7A7A6C65004E6F7A7A6C6500C3
:1025B0005370656564005370656564004D61696EB4
:1025C000004C756C7A426F742054415A2036207248
:1025D000656164792E004361726420696E7365726F
:1025E000746564004D333030205336393820503212
:1025F0003030004D333030205336353920503230B2
:10260000300048617264636F64656420446566618C
:10261000756C742053657474696E6773204C6F61B8
:102620006465640053746F726564207365747469C3
:102630006E677320726574726965766564002064E4
:102640003A200020623A2000613A200045716E2055
:10265000636F656666696369656E74733A002044EA
:10266000002049002020204D3330312050005049B7
:10267000442073657474696E67733A00205A0020B1
:10268000590020204D323036205800486F6D6520AB
:102690006F666673657420286D6D293A00204500C9
:1026A000205A0020580020420020540020204D32A3
:1026B0003035205300416476616E63656420766135
:1026C000726961626C65733A20533D4D696E206694
:1026D0006565647261746520286D6D2F73292C20E7
:1026E000543D4D696E2074726176656C2066656537
:1026F000647261746520286D6D2F73292C20423D12
:102700006D696E696D756D207365676D656E74209A
:1027100074696D6520286D73292C20583D6D617892
:10272000696D756D205859206A65726B20286D6D32
:102730002F73292C20205A3D6D6178696D756D20AD
:102740005A206A65726B20286D6D2F73292C20200A
:10275000453D6D6178696D756D2045206A65726BC8
:1027600020286D6D2F73290020540020204D323019
:1027700034205300416363656C65726174696F6EE8
:102780003A20533D616363656C65726174696F6E75
:102790002C20543D726574726163742061636365BB
:1027A0006C65726174696F6E00204500205A0020CC
:1027B000590020204D3230312058004D6178696D2C
:1027C000756D20416363656C65726174696F6E201D
:1027D000286D6D2F7332293A00204500205A0020C1
:1027E000590020204D3230332058004D6178696DFA
:1027F000756D2066656564726174657320286D6D02
:102800002F73293A00204500205A0020590020202B
:102810004D393220580053746570732070657220F2
:10282000756E69743A0053657474696E67732053EA
:10283000746F726564004572726F723A0065636806
:102840006F3A0053544F505045442E200050726947
:102850006E7465722073746F707065642064756542
:1028600020746F206572726F72732E204669782013
:10287000746865206572726F7220616E6420757372
:1028800065204D39393920746F2072657374617217
:10289000742E202854656D706572617475726520A0
:1028A00069732072657365742E2053657420697492
:1028B0002061667465722072657374617274696EEA
:1028C0006729004B494C4C45442E20005072696EDC
:1028D0007465722068616C7465642E206B696C6C21
:1028E00028292063616C6C65642100FF01FF6F6B18
:1028F00000526573656E643A20002200556E6B6E5F
:102900006F776E20636F6D6D616E643A20220044B4
:102910006179647265616D696E672E2E2E0050724A
:1029200065737320746F20726573756D65005A202E
:102930004F6666736574203A20007A5F6D61783A5D
:1029400020007A5F6D696E3A20005A204F666673E8
:102950006574005A204F6666736574206F6B006C57
:10296000636420636F6E74726173742076616C753A
:10297000653A20007A5F6D61783A20007A5F707264
:102980006F62653A20007A5F6D696E3A2000795F68
:102990006D61783A2000795F6D696E3A2000785F4A
:1029A0006D61783A2000785F6D696E3A20002041B1
:1029B00070707278204C617965723A00205A3A0042
:1029C00020593A0020436F756E7420583A20002039
:1029D000453A00205A3A0020593A00583A004649F0
:1029E000524D574152455F4E414D453A4D61726CD3
:1029F000696E20312E302E322E3139204C756C7A92
:102A0000426F7420534F555243455F434F44455FD7
:102A100055524C3A68747470733A2F2F636F646523
:102A20002E616C6570686F626A656374732E636F84
:102A30006D2F646966667573696F6E2F4D41524CD8
:102A4000494E2F2050524F544F434F4C5F564552E2
:102A500053494F4E3A312E30204D414348494E455F
:102A60005F545950453A4C756C7A426F742054410A
:102A70005A20362045585452554445525F434F55CD
:102A80004E543A3120555549443A6436353138313F
:102A900039642D346137392D346237332D62633513
:102AA000622D6165316665316161623336620A00AB
:102AB0004C756C7A426F742054415A2036204F6610
:102AC000662E004C756C7A426F742054415A203641
:102AD0002072656164792E0042656420436F6F6CDB
:102AE000696E6720646F6E652E00426564204865DC
:102AF0006174696E6720646F6E652E0020573A001E
:102B000020423A0020453A00543A0042656420438E
:102B10006F6F6C696E672E2E2E00426564204865CB
:102B20006174696E672E2E2E00436F6F6C696E673D
:102B300020646F6E652E0048656174696E6720645D
:102B40006F6E652E0020573A0020453A00543A0037
:102B5000436F6F6C696E672E2E2E00486561746935
:102B60006E672E2E2E002042403A0020403A002070
:102B70002F003A00205400202F0020423A00202F3E
:102B8000006F6B20543A000A0A005374616E64614E
:102B9000726420446576696174696F6E3A20000A38
:102BA000004D65616E3A20000A002020207A3A200C
:102BB0000000793A2000783A20003F53706563693D
:102BC00066696564206E756D626572206F66206C43
:102BD00065677320696E206D6F76656D656E742014
:102BE0006E6F7420706C61757361626C652E0A0083
:102BF0003F537065636966696564205920706F731F
:102C00006974696F6E206F7574206F662072616ED3
:102C100067652E0A003F53706563696669656420C5
:102C20005820706F736974696F6E206F7574206FB0
:102C3000662072616E67652E0A003F537065636996
:102C4000666965642073616D706C652073697A656F
:102C5000206E6F7420706C61757361626C652E0AF2
:102C60000046756C6C20737570706F72742061749F
:102C70003A20687474703A2F2F33647072696E74DE
:102C8000626F6172642E636F6D2F666F72756D2E49
:102C90007068700A004D3438205A2D50726F62658A
:102CA000205265706561746162696C697479207421
:102CB0006573742E20202056657273696F6E203202
:102CC0002E30300A003F566572626F7365204C6586
:102CD00076656C206E6F7420706C61757361626CC8
:102CE000652E0A002569206D696E2C2025692073E8
:102CF000656300456E642066696C65206C69737459
:102D000000426567696E2066696C65206C69737442
:102D1000004E6F206D6F76652E004C756C7A426F99
:102D2000742054415A20362072656164792E005215
:102D30006573756D696E67207072696E7400576196
:102D4000697420666F7220757365722E2E2E000ACC
:102D500000205A3A200020593A200020583A2000FA
:102D60004265640050726F62696E6720646F6E65C1
:102D7000210020643A200020623A200045716E2034
:102D8000636F656666696369656E74733A20613A5C
:102D9000200050524F4245204641494C20434C456B
:102DA000414E204E4F5A5A4C450050524F424520FA
:102DB0004641494C20434C45414E204E4F5A5A4CB7
:102DC00045004175746F206C6576656C696E6700AF
:102DD000486F6D6520582F59206265666F726520B7
:102DE0005A00486F6D6520582F59206265666F72D2
:102DF00065205A005A2070726F6265206F75742EBC
:102E000020626564005A2070726F6265206F75746D
:102E10002E2062656400486F6D6520582F5920622E
:102E200065666F7265205A00486F6D6520582F598E
:102E3000206265666F7265205A0020643A20002087
:102E4000623A200045716E20636F6566666963694A
:102E5000656E74733A20613A20004461796472654A
:102E6000616D696E672E2E2E0000009B430080A1CD
:102E700043000087430000A0400000A04000000085
:102E8000400000A0C100809743000000000000A0A7
:102E9000C10000A0C1000000000000914300809725
:102EA00043000087430A00207A3A200020793A2024
:102EB0000020783A200042656400526577697069A5
:102EC0006E67005265776970696E670025692068D2
:102ED0006F757273202569206D696E757465730056
:102EE000446F6E65207072696E74696E67206669E2
:102EF0006C65004C756C7A426F742054415A2036D0
:102F00002072656164792E0053544F505045442E11
:102F100020005072696E7465722073746F707065F2
:102F2000642064756520746F206572726F72732EF1
:102F30002046697820746865206572726F7220611E
:102F40006E6420757365204D39393920746F207295
:102F50006573746172742E202854656D706572619A
:102F6000747572652069732072657365742E2053C1
:102F7000657420697420616674657220726573746B
:102F8000617274696E6729004E6F204C696E65200E
:102F90004E756D6265722077697468206368656339
:102FA0006B73756D2C204C617374204C696E653A9F
:102FB00020004E6F20436865636B73756D207769E1
:102FC0007468206C696E65206E756D6265722C2068
:102FD0004C617374204C696E653A200063686563C8
:102FE0006B73756D206D69736D617463682C204C13
:102FF000617374204C696E653A20004C696E6520DF
:103000004E756D626572206973206E6F74204C611D
:103010007374204C696E65204E756D6265722B313C
:103020002C204C617374204C696E653A20004D3140
:10303000313000446F6E6520736176696E6720667B
:10304000696C652E006F6B004D3239002020506C8A
:10305000616E6E65724275666665724279746573FB
:103060003A20002046726565204D656D6F72793A91
:1030700020004A756C202038203230313600436FF2
:103080006D70696C65643A2000286E6F6E652C2047
:1030900064656661756C7420636F6E66696729008C
:1030A000207C20417574686F723A20004A756C204C
:1030B000203820323031362031343A34313A31330D
:1030C00000204C61737420557064617465643A200B
:1030D00000312E302E322E3139004D61726C696E06
:1030E0000020536F66747761726520526573657452
:1030F00000205761746368646F672052657365745C
:10310000002042726F776E206F7574205265736570
:1031100074002045787465726E616C205265736529
:103120007400506F7765725570007374617274002B
:103130002200656E717565696E6720220022006548
:103140006E717565696E67202200000021104220B3
:1031500063308440A550C660E770088129914AA178
:103160006BB18CC1ADD1CEE1EFF1311210027332EF
:103170005222B5529442F772D662399318837BB3C8
:103180005AA3BDD39CC3FFF3DEE36224433420047F
:103190000114E664C774A44485546AA54BB5288518
:1031A0000995EEE5CFF5ACC58DD5533672261116CF
:1031B0003006D776F6669556B4465BB77AA7199768
:1031C0003887DFF7FEE79DD7BCC7C448E558866857
:1031D000A7784008611802282338CCC9EDD98EE9B8
:1031E000AFF9488969990AA92BB9F55AD44AB77A2F
:1031F000966A711A500A333A122AFDDBDCCBBFFB08
:103200009EEB799B588B3BBB1AABA66C877CE44C3E
:10321000C55C222C033C600C411CAEED8FFDECCD57
:10322000CDDD2AAD0BBD688D499D977EB66ED55E0E
:10323000F44E133E322E511E700E9FFFBEEFDDDFA7
:10324000FCCF1BBF3AAF599F788F8891A981CAB133
:10325000EBA10CD12DC14EF16FE18010A100C23065
:10326000E3200450254046706760B9839893FBA320
:10327000DAB33DC31CD37FE35EF3B1029012F322B5
:10328000D2323542145277625672EAB5CBA5A89570
:1032900089856EF54FE52CD50DC5E234C324A01405
:1032A00081046674476424540544DBA7FAB7998700
:1032B000B8975FE77EF71DC73CD7D326F236910655
:1032C000B01657667676154634564CD96DC90EF948
:1032D0002FE9C899E9898AB9ABA9445865480678A5
:1032E0002768C018E1088238A3287DCB5CDB3FEB60
:1032F0001EFBF98BD89BBBAB9ABB754A545A376AF5
:10330000167AF10AD01AB32A923A2EFD0FED6CDD2F
:103310004DCDAABD8BADE89DC98D267C076C645C44
:10332000454CA23C832CE01CC10C1FEF3EFF5DCF3F
:103330007CDF9BAFBABFD98FF89F176E367E554E94
:10334000745E932EB23ED10EF01E7C3C3E5E2B3D51
:103350003F2F5B5D3B2C2A225C004572723A204D68
:10336000415854454D50204245440054656D7065A8
:103370007261747572652068656174656420626548
:1033800064207377697463686564206F66662E20B5
:103390004D415854454D5020747269676765726598
:1033A00064202121004572723A204D494E54454D0A
:1033B00050003A204578747275646572207377699D
:1033C0007463686564206F66662E204D494E5445CF
:1033D0004D502074726967676572656420210045ED
:1033E00072723A204D415854454D50003A2045786C
:1033F000747275646572207377697463686564209C
:103400006F66662E204D415854454D5020747269A8
:10341000676765726564202100544845524D414CF0
:103420002052554E4157415900546865726D616C88
:103430002052756E617761792C2073797374656D94
:103440002073746F707065642120486561746572C3
:103450005F49443A2000202D20496E76616C6964F2
:10346000206578747275646572206E756D62657220
:103470002021001000C90210012C0140012201701E
:10348000011801B0010E01F00104015002FA00B070
:1034900002F0003003E600D003DC009004D200709C
:1034A00005C800A006BE000008B400B009AA00D0FC
:1034B0000BA000600E960060118C000015820020A9
:1034C000197800C01D6E00A0226400B0275A009039
:1034D0002C500000314600E0343C0010383200909F
:1034E0003A2800603C1E00A03D1400803E0A0020E7
:1034F0003F00001000AD0330016A0150022B017043
:10350000030A019004F500B005E500D006D800F0EC
:1035100007CE001009C500300ABE00500BB700707E
:103520000CB100900DAB00B00EA600D00FA200F0C1
:10353000109D0010129900301395005014920070E5
:10354000158E0090168B00B0178700D0188400F0FD
:10355000198100101B7E00301C7B00501D7900700B
:103560001E7600901F7300B0207000D0216E00F016
:10357000226B00102469003025660050266300701D
:1035800027610090285E00B0295C00D02A5900F025
:103590002B5600102D5400302E5100502F4E00702D
:1035A000304B0090314800B0324500D0334200F03B
:1035B000343E0010363B003037370050383300704F
:1035C000392E00903A2900B03B2300D03C1B00F07C
:1035D0003D1100103F0100F03F0000486561746933
:1035E0006E67206661696C656400504944204175CE
:1035F000746F74756E652066696E697368656421A1
:103600002050757420746865206C617374204B7051
:103610002C204B6920616E64204B6420636F6E73B5
:1036200074616E74732066726F6D2061626F76656F
:1036300020696E746F20436F6E666967757261747E
:10364000696F6E2E6800504944204175746F74751F
:103650006E65206661696C6564212074696D656FB3
:1036600075740020403A006F6B20543A006F6B2055
:10367000423A00504944204175746F74756E65205C
:103680006661696C6564212054656D706572617452
:1036900075726520746F6F206869676800204B64DD
:1036A0003A2000204B693A2000204B703A2000203D
:1036B000436C617373696320504944200020547542
:1036C0003A2000204B753A2000206D61783A2000A6
:1036D000206D696E3A200020643A20002062696102
:1036E000733A200043616E6E6F7420656E7465726C
:1036F000207375626469723A20004D3234004D3295
:1037000033202573006175746F25692E670065721B
:10371000726F722077726974696E6720746F2066A9
:10372000696C65004E6F74205344207072696E742A
:10373000696E67002F005344207072696E74696E61
:1037400067206279746520002E0044656C65746999
:103750006F6E206661696C65642C2046696C653A01
:10376000200046696C652064656C657465643A0088
:103770002E006F70656E206661696C65642C204652
:10378000696C653A200057726974696E6720746FBE
:103790002066696C653A20002E006F70656E2066A9
:1037A00061696C65642C2046696C653A20002E00C6
:1037B0006F70656E206661696C65642C2046696C6B
:1037C000653A200046696C652073656C65637465B5
:1037D00064002053697A653A200046696C65206F61
:1037E00070656E65643A20002E006F70656E20660D
:1037F00061696C65642C2046696C653A20004E6FE7
:10380000772066726573682066696C653A20004EA1
:103810006F7720646F696E672066696C653A200077
:103820002220706F73002220706172656E743A22DC
:1038300000535542524F5554494E452043414C4C3C
:10384000207461726765743A2200747279696E67D8
:1038500020746F2063616C6C207375622D67636FD9
:1038600064652066696C6573207769746820746F7D
:103870006F206D616E79206C6576656C732E204DBE
:103880004158206C6576656C2069733A005344207A
:1038900063617264206F6B006F70656E526F6F743E
:1038A000206661696C656400766F6C756D652E6964
:1038B0006E6974206661696C656400534420696EAA
:1038C0006974206661696C000A0020000A00207A91
:1038D0003A200020793A200020783A200020746FA6
:1038E0006F206C6F6E6720657874727573696F6E88
:1038F0002070726576656E7465640020636F6C6419
:1039000020657874727573696F6E20707265766564
:103910006E7465640001050800FF06012102352070
:10392000FFFF07FF06FF09005022165680808080A7
:103930000080153353A0A0A00257575050F850F8FC
:1039400050500257572070A07028702013355580B2
:10395000A040A02002475740A0A040A0A05025139F
:1039600053808080122656408080808040122656E8
:103970008040404040800245559060F06090025584
:10398000552020F82020113353604080044151F02D
:1039900011335340E0400246561010204080801200
:1039A000365640A0A0A0A04012365640C04040402D
:1039B000E00246566090106080F0024656F02060AB
:1039C0001090600246562060A0F02020024656F07B
:1039D00080E01090600246566080E0909060024661
:1039E00056F0102020404002465660906090906053
:1039F000024656609090701060122555C0C000C0FD
:103A0000C0113656606000604080123656204080FB
:103A1000804020034353F000F012365680402020AF
:103A2000408012365640A02040004001585830488F
:103A300098A8A8904030024656609090F09090026E
:103A40004656E090E09090E002465660908080906C
:103A500060024656E090909090E0024656F080E07A
:103A60008080F0024656F080E080808002465660FA
:103A70009080B090600246569090F09090901236F0
:103A800056E040404040E002465670202020A040D2
:103A900002465690A0C0A0A090024656808080802A
:103AA00080F002465690F0F090909002465690D0EA
:103AB000F0B0B090024656609090909060024656EA
:103AC000E09090E08080014757609090D0B0601007
:103AD000024656E09090E09090024656609040205A
:103AE0009060123656E0404040404002465690906A
:103AF000909090600246569090909060600246567A
:103B0000909090F0F09002465690906060909002F5
:103B10005656888850202020024656F010204080BB
:103B2000F0123656E080808080E002465680804069
:103B3000201010123656E020202020E0163252408D
:103B4000A0014151F01622528040024454709090DE
:103B5000700246568080E09090E01234546080807D
:103B60006002465610107090907002445460B0C0CD
:103B700060024656205040E040400145556090703C
:103B800010600246568080E09090901236564000B9
:103B9000C04040E01137572000202020A0400246BE
:103BA00056808090E09090123656C040404040E0F1
:103BB000025454D0A8A8A8024454E0909090024423
:103BC0005460909060014555E090E080800145553B
:103BD0007090701010024454A0D080801234546051
:103BE000C020C00246564040E0405020024454905D
:103BF000909070123454A0A0A04002545488A8A8F9
:103C000050024454906060900145559090709060CF
:103C1000024454F02040F0024757304020C020407A
:103C200030221656808080808080024757C0204016
:103C3000304020C006425250A0FFFFFFFFFFFFFFB1
:103C4000FFFFFFFFFFFFFFFFFFFFFFFFFFFFFFFF84
:103C5000FFFFFFFFFFFFFFFFFFFF09005022165687
:103C60008000808080800146562070A0A0702002D5
:103C700046562050E04050A002555588705070883C
:103C80000256568850F820F820221757808080006E
:103C90008080800247577080E0907010E0173151AB
:103CA000A002565670A8C8C8A87014355560A06008
:103CB00000E003435350A050123353E0202014314E
:103CC00051E002565670E8D8E8D870173151E01527
:103CD000335340A04012355540E04000E0143555C4
:103CE00040A02040E0143555C020C020C01622520C
:103CF0004080014555909090E08002565678E8E863
:103D000068282824115180112252408014355540D2
:103D1000C04040E014355540A04000E0034353A0AC
:103D200050A0024757808080A060F0200247578053
:103D300080A0D010207002475780408060A0F02003
:103D400012365640004080A0400247574020609005
:103D5000F0909002475720406090F09090024757B3
:103D600060906090F0909002475750A06090F09063
:103D70009002475790006090F090900247576090F3
:103D80006090F0909002465670A0A0F0A0B001475D
:103D900057609080809060400247574020F080E05C
:103DA00080F00247572040F080E080F002475760E3
:103DB00090F080E080F00247579000F080E080F0C3
:103DC0001237578040E0404040E01237572040E033
:103DD000404040E012375740A0E0404040E01237FA
:103DE00057A000E0404040E00256567048E848487E
:103DF0007002475750A090D0B09090024757402093
:103E000060909090600247572040609090906002D0
:103E100047576090609090906002475750A0609024
:103E200090906002475790006090909060123353DA
:103E3000A040A002465670B0B0D0D0E00247574034
:103E40002090909090600247572040909090906012
:103E50000247576090909090906002475790009072
:103E600090909060025757102088502020200246E2
:103E70005680E09090E0800246566090A0A090A00E
:103E80000247574020007090907002475720400032
:103E900070909070024757205000709090700247C9
:103EA0005750A0007090907002465650007090904D
:103EB0007002475760906070909070025454F068A0
:103EC000B07811355560808060400247574020002F
:103ED00060B0C06002475720400060B0C060024739
:103EE0005760900060B0C060024656500060B0C09D
:103EF00060123757804000C04040E01237572040E2
:103F000000C04040E012375740A000C04040E012DF
:103F10003656A000C04040E0024757A040A01070B5
:103F2000906002475750A000E090909002475740A1
:103F300020006090906002475720400060909060A1
:103F40000247576090006090906002475750A00071
:103F500060909060024656900060909060123555D7
:103F60004000E0004002445470B0D0E002475740A7
:103F700020009090907002475720400090909070E1
:103F800002475760900090909070024656900090C3
:103F900090907001485820400090907090600147C8
:103FA000578080E090E080800147579000909070AB
:103FB000906001070E00FE0A018A031E20FFFE0C1E
:103FC000FE0BFE0E0070321A7A8080808080808026
:103FD000008080293474A0A0A0A0125A7A505050BA
:103FE000F85050F8505050016B7B10789494503832
:103FF0001494947810026A7A64949870102038644B
:10400000A498026A7A3048484830649488986439A1
:10401000147480808080204D7D10204040808080FE
:10402000808040402010104D7D80402020101010D6
:1040300010102020408013577720A8702070A820EF
:10404000135777202020F8202020202474C04040DF
:1040500080165171F821337340E040006D7D0404F7
:104060000808101010202040408080026A7A3048F2
:104070008484848484844830125A7A2060A020206A
:1040800020202020F8026A7A78848404080810200E
:1040900040FC026A7AFC0408103804048484780224
:1040A0006A7A08182828484888FC0808026A7AFCB6
:1040B0008080F8840404848478026A7A384080809E
:1040C000B8C484848478026A7AFC0408081010203A
:1040D000204040026A7A7884844830488484847816
:1040E000026A7A788484848C740484887022387894
:1040F00040E040000040E040212878C0C00000C0FF
:104100004040801259790810204080402010080556
:104110006474FC0000FC12597980402010081020C3
:104120004080026A7A78848408101010001010020F
:104130006A7A38449CA4A4A4A49C403C026A7A30C5
:1041400048848484FC84848484026A7AF088848825
:10415000F088848488F0026A7A7884848080808001
:10416000848478026A7AF08884848484848488F0E1
:10417000026A7AFC808080F080808080FC026A7A0B
:10418000FC808080F08080808080026A7A788484DD
:1041900080809C84848C74026A7A84848484FC8405
:1041A00084848484125A7AF8202020202020202021
:1041B000F8026A7A1C080808080808888870026AE9
:1041C0007A848890A0C0A090888484026A7A8080D3
:1041D00080808080808080FC026A7A84CCCCB4B4F9
:1041E0008484848484026A7A8484C4C4A4948C8C75
:1041F0008484026A7A7884848484848484847802BF
:104200006A7AF884848484F880808080006C7C786A
:104210008484848484E4948C780804026A7AF88420
:10422000848484F890888484026A7A7884848060A4
:104230001804848478027A7AFE101010101010107E
:104240001010026A7A84848484848484848478024A
:104250006A7A84848484484848303030125A7A8894
:104260008888888888A8A8A850026A7A84844848E0
:10427000303048488484125A7A88888850502020E8
:10428000202020026A7AFC0408101020404080FCA4
:10429000204D7DF08080808080808080808080F0D4
:1042A000006D7D808040402020201010080804040C
:1042B000104D7DF01010101010101010101010F094
:1042C0000A6373304884006171FC2A337380402094
:1042D0000267777884047C84847C026A7A80808098
:1042E000B8C4848484C4B80267777884808080846A
:1042F00078026A7A040404748C8484848C7402675F
:1043000077788484FC808478026A7A18242020F8E4
:104310002020202020006979748888887040B88423
:1043200078026A7A808080B8C48484848484125A33
:104330007A202000602020202020F8105C7C0808D3
:1043400000180808080808888870026A7A80808047
:104350008890A0E0908884125A7A60202020202043
:10436000202020F8125777D0A8A8A8A8A88802670C
:1043700077B8C4848484848402677778848484844E
:104380008478006979B8C4848484C4B88080006962
:1043900079748C8484848C740404026777B8C48430
:1043A0008080808002677778844030088478026A51
:1043B0007A202020F8202020202418026777848487
:1043C0008484848C741257778888885050202012F7
:1043D00057778888A8A8A8A85002677784844830AF
:1043E000488484006979848484848C740484780289
:1043F0006777FC0810202040FC204D7D3040404075
:10440000404080404040404030301D7D8080808072
:10441000808080808080808080104D7DC020202022
:104420002020102020202020C009647440A494087B
:10443000FFFFFFFFFFFFFFFFFFFFFFFFFFFFFFFF8C
:10444000FFFFFFFFFFFFFFFFFFFFFFFFFFFFFFFF7C
:10445000FF0E0070321A7A80800080808080808019
:10446000800169792078A4A0A0A0A47820125979AD
:1044700030484040F04040F0480466768478484830
:104480007884125A7A88505020F820F82020203260
:104490001A7A80808080000080808080026B7B7828
:1044A000844030488448300884781B4272909002DF
:1044B0006B7B7884B4CCC4C4C4CCB48478155878ED
:1044C00070887888986800F8026777142850A050A0
:1044D0002814125474F8080808164171F0026B7B16
:1044E0007884F4CCCCF4CCCCCC84781B5171F81902
:1044F0004474609090601256762020F82020F816C0
:104500004777609010204080F016477760901060E9
:104510001090602A337320408010587888888888EB
:10452000D8A88080105C7C78A8A8A8A8682828282B
:104530002828383711718020237340408026377730
:1045400040C040404040E01646766090906000F0E9
:10455000026777A05028142850A0026A7A40C44805
:104560004850242C549C84026A7A40C448485028FD
:104570003444889C026A7AC4244830D0244C549C29
:1045800004006B7B202000202020204084847802BF
:104590006C7C20100030488484FC84848484026C09
:1045A0007C10200030488484FC84848484026C7CE9
:1045B00030480030488484FC84848484026C7C64A9
:1045C000980030488484FC84848484026B7B480097
:1045D00030488484FC84848484026B7B3048304877
:1045E0008484FC84848484026A7A3C509090FC9099
:1045F0009090909C006C7C788484808080808484FF
:10460000781020026C7C201000FC808080F8808074
:1046100080FC026C7C102000FC808080F880808010
:10462000FC026C7C304800FC808080F8808080FC3C
:10463000026B7B4800FC808080F8808080FC125CEC
:104640007C402000F820202020202020F8125C7CD4
:10465000102000F820202020202020F8125C7C2050
:104660005000F820202020202020F8125B7B5000F2
:10467000F820202020202020F8027A7A7844424234
:10468000F24242424478026C7C649800C4C4A4A400
:104690009494948C8C026C7C2010007884848484A4
:1046A00084848478026C7C102000788484848484E0
:1046B000848478026C7C3048007884848484848488
:1046C0008478026C7C6498007884848484848484F4
:1046D00078026B7B480078848484848484847802A4
:1046E000777782442810284482006E7E0404788CF8
:1046F000949494A4A4A4C4788080026C7C201000BC
:10470000848484848484848478026C7C1020008473
:104710008484848484848478026C7C30480084841B
:1047200084848484848478026B7B480084848484B9
:104730008484848478125C7C102000888850502007
:1047400020202020026A7A8080F884848484F88083
:1047500080026A7A304848487048444444F8026A03
:104760007A2010007884047C84847C026A7A0810A1
:10477000007884047C84847C026A7A3048007884DF
:10478000047C84847C026A7A6498007884047C8443
:10479000847C02697948007884047C84847C026B80
:1047A0007B304830007884047C84847C0277777C7A
:1047B00092325E90927C00697978848080808478DF
:1047C0001020026A7A201000788484FC80847802A9
:1047D0006A7A102000788484FC808478026A7A30B7
:1047E0004800788484FC8084780269794800788461
:1047F00084FC808478125A7A402000602020202097
:1048000020F8125A7A102000602020202020F81270
:104810005A7A609000602020202020F812597950A8
:1048200000602020202020F8125B7B502050087868
:10483000888888888870026A7A649800B8C48484FA
:10484000848484026A7A2010007884848484847842
:10485000026A7A10200078848484848478026A7AD8
:1048600030480078848484848478026A7A6498006A
:104870007884848484847802697948007884848484
:104880008484780265753000FC0030006B7B04087E
:10489000789494A4A4C4788080026A7A201000845A
:1048A000848484848C74026A7A10200084848484D2
:1048B000848C74026A7A30480084848484848C7482
:1048C000026979480084848484848C74006C7C1030
:1048D0002000848444482838109060006C7C8080DC
:1048E00080B8C4848484C4B88080006B7B48008412
:1048F00084444828381090600000210024002700DC
:104900002A002D00300033000101000004010701DE
:104910000A0100002200250028002B002E00310093
:10492000340002010000050108010B010000200015
:104930002300260029002C002F0032000001000077
:104940000301060109010505050507050808080812
:10495000020202020A0A0808040404040101010117
:104960000101010103030303030303030407070712
:104970000C0C0C0C0C0C0C0C0202020206060606B7
:10498000060606060B0B0B0B0B0B0B0B07070A0A95
:104990000A0A0A0A05050504010210202008081069
:1049A000204010204080020102010804020101029F
:1049B0000408102040808040201008040201800478
:1049C00002018040201008040201080402010102D3
:1049D00004081020408001020408102040801008C4
:1049E000040880102040044080100000090A0208DA
:1049F0000B0C0D070603040100000000000000007E
:104A000000000000000000000000000000000000A6
:104A100000000000000011100F0000000000000066
:104A20000000000000000000000000000000000086
:104A300002494E46494E4954594E414ECDCCCC3D8B
:104A40000AD7233C17B7D13877CC2B329595E6247B
:104A50001FB14F0A000020410000C84200401C4620
:104A600020BCBE4CCA1B0E5AAEC59D740D941B1DB6
:104A70000D94F51C0D94631D0D94EC1C0D94331DC9
:104A80000D94F0240D94511F0D9460210D940E0A85
:104A90000D941C1D0D945A280D940A1DB23A0580E0
:104AA0001D924825189211241FBECFEFD1E2DEBF20
:104AB000CDBF00E00CBF15E0A0E0B2E0E0E7F3E618
:104AC00002E00BBF02C007900D92AE3BB107D9F7D1
:104AD0001BBE16E1AEEBB5E001C01D92A33CB107D1
:104AE000E1F71AE4C4EADAE404C02297FE010F9465
:104AF0005E31CC39D107C9F70F94AA280D94AC3197
:104B00000C940000CF93DF93BC018230910510F428
:104B100062E070E0A091BF16B091C016ED0140E0D8
:104B200050E0E0E0F0E021C0888199818617970786
:104B300069F48A819B81309719F09383828304C042
:104B40009093C0168093BF16FE0134C06817790792
:104B500038F44115510519F08417950708F4AC0194
:104B6000FE018A819B819C01E9012097E9F64115AC
:104B70005105A9F1CA01861B970B049708F4BA01E5
:104B8000E0E0F0E02AC08D919C9111978417950781
:104B9000F9F46417750781F412968D919C9113971F
:104BA000309719F09383828304C09093C01680934A
:104BB000BF16FD0132964CC0CA01861B970BFD0142
:104BC000E80FF91F6193719302978D939C9340C0F6
:104BD000FD01828193819C01D9011097A1F68091FA
:104BE000BD169091BE16892B41F480913A049091A4
:104BF0003B049093BE168093BD1640913C045091A7
:104C00003D044115510541F44DB75EB7809138041C
:104C100090913904481B590B2091BD163091BE1656
:104C2000CA01821B930B8617970780F0AB014E5F7A
:104C30005F4F8417950750F0420F531F5093BE16D5
:104C40004093BD16F9016193719302C0E0E0F0E07A
:104C5000CF01DF91CF910895CF93DF93009709F4AF
:104C600050C0EC0122971B821A82A091BF16B0910E
:104C7000C016109709F140E050E0AC17BD0708F1ED
:104C8000BB83AA83FE0121913191E20FF31FAE177E
:104C9000BF0779F48D919C911197280F391F2E5FD2
:104CA0003F4F3983288312968D919C9113979B8354
:104CB0008A834115510571F4D093C016C093BF1675
:104CC00020C012968D919C911397AD01009711F021
:104CD000DC01D3CFFA01D383C28321913191E20F5A
:104CE000F31FCE17DF0769F488819981280F391FD8
:104CF0002E5F3F4FFA01318320838A819B8193830A
:104D00008283DF91CF910895A0E0B0E0EAE8F6E277
:104D10000D947B31EC015B016115710519F0FB010C
:104D200091838083F9908F2D90E00F946231892BCD
:104D3000C9F7FDE2FF1621F4F990EE24E39405C0D3
:104D40002BE2F21609F4F990EE248E010150104086
:104D5000C80161E37AE443E050E072D2892BF9F4B0
:104D60008E010E5F1F4FC80164E37AE445E050E016
:104D700067D2892B19F48E01095F1F4FA114B1046A
:104D800019F0F50111830083E0FC04C070E090E0AD
:104D900080E813C070E090E080E86FEF07C1C801C1
:104DA00069E37AE443E050E04BD2892B69F4A11423
:104DB000B10429F470E090E080EC6FE7F7C0229630
:104DC000F501D183C083F6CF8824992440E050E0D8
:104DD00060E070E0EF2DE053EA30A0F5F2E0EF2A5A
:104DE0008E2D90E09C0128703070E2FE06C0232BCF
:104DF00079F50894811C911C2BC0232B19F0089481
:104E000081089108DB01CA0112E0880F991FAA1FCF
:104E1000BB1F1A95D1F7480F591F6A1F7B1F440FFC
:104E2000551F661F771F4E0F511D611D711D48399B
:104E300029E9520729E9620729E1720748F084E06D
:104E4000E82A06C0EE3F31F4E3FC39C098E0E92AD5
:104E5000F990C0CFE53311F0E53189F529912D3274
:104E600019F4E0E1EE2A05C02B3219F081E090E060
:104E700003C0299182E090E0E22FE053EA3018F07D
:104E8000C81BD90B1CC020E030E0FCE020383F07F5
:104E90005CF4C901880F991F880F991F280F391FCB
:104EA000220F331F2E0F311DE991E053EA3068F3D2
:104EB000E4FE03C0309521953F4F820E931ECE2C09
:104EC000DD24E1FE07C0A114B10421F02197F50112
:104ED000D183C083CB01BA010F94C72D7B018C0114
:104EE000F3E0CF22DD2423E0C216D10421F417FB26
:104EF000109517F9109557016801C801B70120E016
:104F000030E040E050E00F94272D882309F44AC098
:104F100097FE0DC020E5E22E2AE4F22E90948194B3
:104F200091089394C0E2D0E000E010E012C098E64F
:104F3000E92E9AE4F92EF6CFF701259135914591A6
:104F40005491C601B5010F9407305B016C018C1AB6
:104F50009D0A8C169D0684F7D595C7950F5F1F4F48
:104F60000630110529F08CEF9FEFE80EF91EF1CF06
:104F7000C501D6017C018D018C2D880F8D2D881FD8
:104F80008F3F51F0C601B50120E030E040E050E035
:104F90000F94272D882331F482E290E09093C2167B
:104FA0008093C1167E2D9F2D802F612F272F392FA3
:104FB000482F562FB901CA01CDB7DEB7ECE00D94EA
:104FC00097312F923F925F926F927F928F929F9232
:104FD000AF92BF92CF92DF92EF92FF920F931F9307
:104FE000CF93DF938C011B01EA016115710519F064
:104FF000FB0191838083209749F0CE01029783972C
:1050000028F020E030E040E050E0F6C0F801A19048
:105010008F018A2D90E00F946231892BB9F7FDE260
:10502000AF1631F4F801A1908F015524539407C0B5
:10503000FBE2AF1619F4F801A1908F0155242097D7
:1050400019F0C031D105C1F4F0E3AF1679F4F801DD
:105050008081883711F0883549F4F801A1800E5F0E
:105060001F4FF2E05F2AC0E1D0E006C0209721F494
:1050700080E3A816E9F427C0C830D10531F1C93062
:10508000D10524F4C230D10531F50CC0CA30D105A8
:1050900089F0C031D105F9F4C12CD12CE12CB8E054
:1050A000FB2E28C0C12CD12CE12CA0E4FA2E22C06A
:1050B000CAE0D0E0FCECCF2EFCECDF2EFCECEF2EB7
:1050C000FCE0FF2E17C0C8E0D0E0C12CD12CE12CB1
:1050D000E0E1FE2E0FC09E01442737FD4095542F7E
:1050E00060E070E080E090E80F941F31C901DA01C0
:1050F0006C017D0120E030E040E050E060E03E01E6
:10510000882477FC8094982C70EDB72EBA0CE9E0D7
:10511000EB1570F48A2D81548A3118F499ECB92E6C
:1051200006C08A2D81568A3150F589EAB82EBA0C0C
:105130008B2D90E08C179D0714F56F3FE1F0C216A0
:10514000D306E406F506B0F0CA01B901A401930143
:105150000F94D9309B01AC012B0D311D411D511D08
:105160002130F0E03F07F0E04F07F0E85F0710F470
:1051700061E001C06FEFF801A1908F01C5CF21144C
:10518000310481F0662331F001501040F1011183A8
:10519000008308C051FE1AC002501040F101118373
:1051A000008314C067FF12C050FC05C02FEF3FEF13
:1051B0004FEF5FE704C020E030E040E050E882E2DB
:1051C00090E09093C2168093C11616C050FE08C09E
:1051D00050954095309521953F4F4F4F5F4F0CC0F4
:1051E00057FF0AC082E290E09093C2168093C116E6
:1051F0002FEF3FEF4FEF5FE7B901CA01DF91CF918A
:105200001F910F91FF90EF90DF90CF90BF90AF90E4
:105210009F908F907F906F905F903F902F90089518
:10522000FB01DC0105900D920020E1F70895FC01DF
:1052300005900020E9F7809590958E0F9F1F0895A7
:10524000FB01DC014150504088F08D9181341CF00D
:105250008B350CF4805E659161341CF06B350CF479
:10526000605E861B611171F3990B0895881BFCCF5A
:10527000FB01DC014150504048F005900D920020A8
:10528000C9F701C01D9241505040E0F70895FB015D
:1052900055915523A9F0BF01DC014D9145174111EE
:1052A000E1F759F4CD010590002049F04D914015EA
:1052B0004111C9F3FB014111EFCF81E090E001976B
:1052C0000895FB01DC0104C08D910190801921F447
:1052D00041505040C8F7881B990B0895FB01DC0131
:1052E00002C001900D9241505040D8F70895FB0143
:1052F000DC018D9181341CF08B350CF4805E619162
:1053000061341CF06B350CF4605E861B611189F30F
:10531000990B0895FB01DC010D900020E9F711972E
:1053200001900D920020E1F70895FC01819186170C
:1053300021F08823D9F7992708953197CF0108954F
:10534000FB01DC018D91019080190110D9F3990BBB
:105350000895FB01DC0101900D920020E1F7089512
:10536000FB01DC014150504030F08D9101908019DB
:1053700019F40020B9F7881B990B0895FB01DC0193
:105380004150504048F001900D920020C9F701C0F3
:105390001D9241505040E0F70895FB015191552373
:1053A000A9F0BF01DC014D9145174111E1F759F416
:1053B000CD010190002049F04D9140154111C9F3F4
:1053C000FB014111EFCF81E090E001970895AEE03D
:1053D000B0E0EDEEF9E20D9483310E891F898EE085
:1053E0008C831A8309838FEF9FE79E838D839E01B1
:1053F000265E3F4FCE010196688D798DA9010AD0B6
:105400002F813885020F131FF80110822E96E4E0D9
:105410000D949F31ABE0B0E0E0E1FAE20D9475311C
:105420003C012B015A01FC0117821682838181FD08
:1054300003C06FEF7FEFB9C19AE0892E1E01089477
:10544000211C311CF3012381F20123FD859123FFEF
:1054500081912F01882309F4A5C1853239F423FDF8
:10546000859123FF81912F01853221F490E0B301D2
:10547000B7D1E8CF982FFF24EE249924FFE1FF1540
:10548000D0F09B3269F09C3228F4903259F093327C
:1054900091F40EC09D3249F0903369F441E024C08C
:1054A00052E0F52A84E0F82A28C098E0F92A25C0BD
:1054B000E0E1FE2A22C0F7FC29C0892F80538A3000
:1054C00070F4F6FE05C0989C902C1124980E15C01F
:1054D000E89CE02C1124E80EF0E2FF2A0EC09E3278
:1054E00029F4F6FC5FC140E4F42A07C09C3619F4A5
:1054F00050E8F52A02C0983649F4F20123FD95914F
:1055000023FF91912F01992309F0B8CF892F85545A
:10551000833018F08052833038F444E050E0A40E19
:10552000B51E5FE359830FC0933631F0933779F09E
:10553000933509F052C01FC0F5018081898342E094
:1055400050E0A40EB51E610101E010E011C0F501AC
:10555000C080D180F6FC03C06FEF7FEF02C0692DE1
:1055600070E042E050E0A40EB51EC6012ED18C01C1
:105570005FE7F52213C0F501C080D180F6FC03C0BF
:105580006FEF7FEF02C0692D70E042E050E0A40EA3
:10559000B51EC6010FD18C0150E8F52AF3FE06C0F6
:1055A00018C080E290E0B3011BD1EA948E2D90E008
:1055B00008171907B0F30DC0F601F7FC8591F7FE47
:1055C00081916F0190E0B3010BD1E110EA94015099
:1055D00010400115110581F7E2C0943611F099369B
:1055E00061F5F7FE08C0F5012081318142815381C8
:1055F00084E090E00AC0F501808191819C014427FC
:1056000037FD4095542F82E090E0A80EB91E9FE62A
:10561000F92257FF09C050954095309521953F4F8D
:105620004F4F5F4FE0E8FE2ACA01B901A1012AE00D
:1056300030E002D1D82ED2183FC0953729F41F2D63
:105640001F7E2AE030E01DC01F2D197F9F3661F0BC
:10565000903720F4983509F0A5C00FC0903739F085
:10566000983709F09FC004C028E030E00AC01061FC
:1056700014FD146020E130E004C014FD166020E148
:1056800032E017FF08C0F50160817181828193814A
:1056900044E050E008C0F50180819181BC0180E0C8
:1056A00090E042E050E0A40EB51EA101C5D0D82E76
:1056B000D2188FE7F82EF122F6FE0BC05EEFF5222E
:1056C000D91438F4F4FE07C0F2FC05C08FEEF822BE
:1056D00002C01D2D01C0192DF4FE0DC0FE01ED0DFF
:1056E000F11D8081803319F499EEF92208C01F5F03
:1056F000F2FE05C003C08F2D867809F01F5F0F2DC5
:10570000F3FC13C0F0FE0EC01E1510F09D2C0AC055
:105710009D2C9E0C911A1E2D05C080E290E0B301D5
:105720005FD01F5F1E15C8F304C01E1510F4E11AE8
:1057300001C0EE2404FF0EC080E390E0B30150D01E
:1057400002FF1BC001FD03C088E790E00EC088E5A2
:1057500090E00BC0802F867881F001FF02C08BE2C1
:1057600001C080E2F7FC8DE290E0B30139D005C0C2
:1057700080E390E0B30134D09A94D914C8F3DA945A
:10578000F101ED0DF11D808190E0B30129D0DD2004
:10579000B1F705C080E290E0B30122D0EA94EE2098
:1057A000C9F750CEF30166817781CB012B96E2E1F8
:1057B0000D949131FC010590615070400110D8F7B3
:1057C000809590958E0F9F1F0895FC016150704049
:1057D00001900110D8F7809590958E0F9F1F089526
:1057E0000F931F93CF93DF938C01EB018B8181FF8C
:1057F0001BC082FF0DC02E813F818C819D812817A7
:10580000390764F4E881F9810193F983E88306C0DC
:10581000E885F985802F1995892B31F48E819F8138
:1058200001969F838E8302C00FEF1FEFC801DF91A7
:10583000CF911F910F910895FA01AA27283051F1B5
:10584000203181F1E8946F936E7F6E5F7F4F8F4FB1
:105850009F4FAF4FB1E03ED0B4E03CD0670F781F10
:10586000891F9A1FA11D680F791F8A1F911DA11DF5
:105870006A0F711D811D911DA11D20D009F468942E
:105880003F912AE0269F11243019305D3193DEF6D6
:10589000CF010895462F4770405D4193B3E00FD08C
:1058A000C9F7F6CF462F4F70405D4A3318F0495D77
:1058B00031FD4052419302D0A9F7EACFB4E0A6955A
:1058C0009795879577956795BA95C9F7009761057C
:1058D000710508959B01AC010A2E069457954795D2
:1058E00037952795BA95C9F7620F731F841F951FC7
:1058F000A01D08951092F6051092FD05109208065D
:10590000109204060895809344040895EFE6F0E0B1
:1059100080818260808308951F93FC011FB7F894F3
:1059200080819181A281B3818093CC059093CD0534
:10593000A093CE05B093CF05FB0180819181A28118
:10594000B3818093D0059093D105A093D205B093F5
:10595000D305FA0180819181A281B3818093D4051E
:105960009093D505A093D605B093D705F901808112
:105970009181A281B3818093D8059093D905A0939A
:10598000DA05B093DB051FBF1F910895FC012FB707
:10599000F89480819181A281B3818093D8059093FE
:1059A000D905A093DA05B093DB052FBF0895E82F42
:1059B0008FB7F894F0E0EE0FFF1FEE0FFF1FE453D8
:1059C000FA4F20813181428153818FBFB901CA01D1
:1059D0000895CF93DF932FB7F894C82FD0E0CC0F62
:1059E000DD1FCC0FDD1FFE01E453FA4F6081718192
:1059F000828193812FBF0F94C92DC958DF4E288112
:105A000039814A815B810F942E2DDF91CF910895CA
:105A100088E893E19093DD058093DC0580916F0029
:105A20008D7F80936F000CC09091B1158091B2155D
:105A3000981731F08091B2158F5F8F708093B215F7
:105A40009091B1158091B215981771F71092BF051A
:105A50001092BE0580916F00826080936F00089560
:105A6000813049F1813020F0823009F06FC046C0AA
:105A7000179820910901662331F09FB7F89480911F
:105A80000B01826005C09FB7F89480910B018D7F58
:105A900080930B019FBF409A409821FF06C09FB79B
:105AA000F89480910B01826045C09FB7F894809173
:105AB0000B018D7F3FC0169820910901662331F4B8
:105AC0009FB7F89480910B01816005C09FB7F8944F
:105AD00080910B018E7F80930B019FBF419A41986B
